{
  "contractName": "Courtify",
  "abi": [
    {
      "inputs": [],
      "payable": false,
      "stateMutability": "nonpayable",
      "type": "constructor"
    },
    {
      "anonymous": false,
      "inputs": [
        {
          "indexed": false,
          "internalType": "address",
          "name": "_initiator",
          "type": "address"
        },
        {
          "indexed": true,
          "internalType": "uint256",
          "name": "_caseID",
          "type": "uint256"
        },
        {
          "indexed": false,
          "internalType": "uint256",
          "name": "_timestamp",
          "type": "uint256"
        },
        {
          "indexed": false,
          "internalType": "string",
          "name": "_state",
          "type": "string"
        },
        {
          "indexed": false,
          "internalType": "string",
          "name": "_district",
          "type": "string"
        },
        {
          "indexed": false,
          "internalType": "string",
          "name": "_court",
          "type": "string"
        },
        {
          "indexed": true,
          "internalType": "uint256",
          "name": "_petitonerID",
          "type": "uint256"
        },
        {
          "indexed": true,
          "internalType": "uint256",
          "name": "_caseType",
          "type": "uint256"
        }
      ],
      "name": "CaseCreated",
      "type": "event"
    },
    {
      "anonymous": false,
      "inputs": [
        {
          "indexed": false,
          "internalType": "address",
          "name": "_initiator",
          "type": "address"
        },
        {
          "indexed": false,
          "internalType": "uint256",
          "name": "_caseID",
          "type": "uint256"
        },
        {
          "indexed": false,
          "internalType": "string",
          "name": "_IPFS",
          "type": "string"
        }
      ],
      "name": "EvidenceAdded",
      "type": "event"
    },
    {
      "constant": true,
      "inputs": [
        {
          "internalType": "uint256",
          "name": "",
          "type": "uint256"
        }
      ],
      "name": "cases",
      "outputs": [
        {
          "internalType": "uint256",
          "name": "timestamp",
          "type": "uint256"
        },
        {
          "internalType": "string",
          "name": "state",
          "type": "string"
        },
        {
          "internalType": "string",
          "name": "district",
          "type": "string"
        },
        {
          "internalType": "string",
          "name": "court",
          "type": "string"
        },
        {
          "internalType": "uint256",
          "name": "petitonerID",
          "type": "uint256"
        },
        {
          "internalType": "uint256",
          "name": "caseType",
          "type": "uint256"
        }
      ],
      "payable": false,
      "stateMutability": "view",
      "type": "function"
    },
    {
      "constant": true,
      "inputs": [],
      "name": "lastCaseID",
      "outputs": [
        {
          "internalType": "uint256",
          "name": "",
          "type": "uint256"
        }
      ],
      "payable": false,
      "stateMutability": "view",
      "type": "function"
    },
    {
      "constant": true,
      "inputs": [
        {
          "internalType": "uint256",
          "name": "",
          "type": "uint256"
        }
      ],
      "name": "petitoners",
      "outputs": [
        {
          "internalType": "uint256",
          "name": "id",
          "type": "uint256"
        },
        {
          "internalType": "string",
          "name": "name",
          "type": "string"
        }
      ],
      "payable": false,
      "stateMutability": "view",
      "type": "function"
    },
    {
      "constant": true,
      "inputs": [],
      "name": "totalPetitoner",
      "outputs": [
        {
          "internalType": "uint256",
          "name": "",
          "type": "uint256"
        }
      ],
      "payable": false,
      "stateMutability": "view",
      "type": "function"
    },
    {
      "constant": false,
      "inputs": [
        {
          "internalType": "uint256",
          "name": "_timestamp",
          "type": "uint256"
        },
        {
          "internalType": "string",
          "name": "_state",
          "type": "string"
        },
        {
          "internalType": "string",
          "name": "_district",
          "type": "string"
        },
        {
          "internalType": "string",
          "name": "_court",
          "type": "string"
        },
        {
          "internalType": "uint256",
          "name": "_petitonerID",
          "type": "uint256"
        },
        {
          "internalType": "string",
          "name": "_name",
          "type": "string"
        },
        {
          "internalType": "uint256",
          "name": "_caseType",
          "type": "uint256"
        }
      ],
      "name": "createNewCase",
      "outputs": [
        {
          "internalType": "uint256",
          "name": "caseId",
          "type": "uint256"
        }
      ],
      "payable": false,
      "stateMutability": "nonpayable",
      "type": "function"
    },
    {
      "constant": false,
      "inputs": [
        {
          "internalType": "uint256",
          "name": "_caseID",
          "type": "uint256"
        },
        {
          "internalType": "string",
          "name": "_IPFS",
          "type": "string"
        }
      ],
      "name": "uploadEvidence",
      "outputs": [],
      "payable": false,
      "stateMutability": "nonpayable",
      "type": "function"
    },
    {
      "constant": true,
      "inputs": [
        {
          "internalType": "uint256",
          "name": "_caseID",
          "type": "uint256"
        }
      ],
      "name": "getCase",
      "outputs": [
        {
          "internalType": "uint256",
          "name": "_timestamp",
          "type": "uint256"
        },
        {
          "internalType": "string",
          "name": "_state",
          "type": "string"
        },
        {
          "internalType": "string",
          "name": "_district",
          "type": "string"
        },
        {
          "internalType": "string",
          "name": "_court",
          "type": "string"
        },
        {
          "internalType": "string",
          "name": "name",
          "type": "string"
        },
        {
          "internalType": "uint256",
          "name": "_caseType",
          "type": "uint256"
        }
      ],
      "payable": false,
      "stateMutability": "view",
      "type": "function"
    },
    {
      "constant": true,
      "inputs": [
        {
          "internalType": "uint256",
          "name": "_caseID",
          "type": "uint256"
        }
      ],
      "name": "getEvidence",
      "outputs": [
        {
          "internalType": "string[]",
          "name": "",
          "type": "string[]"
        }
      ],
      "payable": false,
      "stateMutability": "view",
      "type": "function"
    }
  ],
  "bytecode": "0x608060405234801561001057600080fd5b506001600081905550600180819055506115f28061002f6000396000f3fe608060405234801561001057600080fd5b50600436106100885760003560e01c8063c956f1431161005b578063c956f1431461012c578063ca8dbd8d1461015c578063d273a11a1461017a578063f09790dd146101ab57610088565b8063718643e61461008d5780638d0f86e5146100a95780639f12632c146100d9578063a91a1080146100f7575b600080fd5b6100a760048036036100a29190810190610f71565b6101e0565b005b6100c360048036036100be9190810190610fc5565b6101ee565b6040516100d091906112dd565b60405180910390f35b6100e1610211565b6040516100ee91906112dd565b60405180910390f35b610111600480360361010c9190810190610f48565b610217565b60405161012396959493929190611328565b60405180910390f35b61014660048036036101419190810190610f48565b61064f565b60405161015391906112bb565b60405180910390f35b61016461074e565b60405161017191906112dd565b60405180910390f35b610194600480360361018f9190810190610f48565b610754565b6040516101a29291906112f8565b60405180910390f35b6101c560048036036101c09190810190610f48565b610810565b6040516101d7969594939291906113a5565b60405180910390f35b6101ea8282610a14565b5050565b60008061020089898989898989610aa6565b905080915050979650505050505050565b60015481565b60006060806060806000610229610c8f565b600360008981526020019081526020016000206040518060e001604052908160008201548152602001600182018054600181600116156101000203166002900480601f0160208091040260200160405190810160405280929190818152602001828054600181600116156101000203166002900480156102ea5780601f106102bf576101008083540402835291602001916102ea565b820191906000526020600020905b8154815290600101906020018083116102cd57829003601f168201915b50505050508152602001600282018054600181600116156101000203166002900480601f01602080910402602001604051908101604052809291908181526020018280546001816001161561010002031660029004801561038c5780601f106103615761010080835404028352916020019161038c565b820191906000526020600020905b81548152906001019060200180831161036f57829003601f168201915b50505050508152602001600382018054600181600116156101000203166002900480601f01602080910402602001604051908101604052809291908181526020018280546001816001161561010002031660029004801561042e5780601f106104035761010080835404028352916020019161042e565b820191906000526020600020905b81548152906001019060200180831161041157829003601f168201915b50505050508152602001600482015481526020016005820154815260200160068201805480602002602001604051908101604052809291908181526020016000905b8282101561052c578382906000526020600020018054600181600116156101000203166002900480601f0160208091040260200160405190810160405280929190818152602001828054600181600116156101000203166002900480156105185780601f106104ed57610100808354040283529160200191610518565b820191906000526020600020905b8154815290600101906020018083116104fb57829003601f168201915b505050505081526020019060010190610470565b5050505081525050905061053e610ccc565b600260008360800151815260200190815260200160002060405180604001604052908160008201548152602001600182018054600181600116156101000203166002900480601f0160208091040260200160405190810160405280929190818152602001828054600181600116156101000203166002900480156106035780601f106105d857610100808354040283529160200191610603565b820191906000526020600020905b8154815290600101906020018083116105e657829003601f168201915b5050505050815250509050816000015182602001518360400151846060015184602001518660a00151849450839350829250819150975097509750975097509750505091939550919395565b606060036000838152602001908152602001600020600601805480602002602001604051908101604052809291908181526020016000905b82821015610743578382906000526020600020018054600181600116156101000203166002900480601f01602080910402602001604051908101604052809291908181526020018280546001816001161561010002031660029004801561072f5780601f106107045761010080835404028352916020019161072f565b820191906000526020600020905b81548152906001019060200180831161071257829003601f168201915b505050505081526020019060010190610687565b505050509050919050565b60005481565b6002602052806000526040600020600091509050806000015490806001018054600181600116156101000203166002900480601f0160208091040260200160405190810160405280929190818152602001828054600181600116156101000203166002900480156108065780601f106107db57610100808354040283529160200191610806565b820191906000526020600020905b8154815290600101906020018083116107e957829003601f168201915b5050505050905082565b6003602052806000526040600020600091509050806000015490806001018054600181600116156101000203166002900480601f0160208091040260200160405190810160405280929190818152602001828054600181600116156101000203166002900480156108c25780601f10610897576101008083540402835291602001916108c2565b820191906000526020600020905b8154815290600101906020018083116108a557829003601f168201915b505050505090806002018054600181600116156101000203166002900480601f0160208091040260200160405190810160405280929190818152602001828054600181600116156101000203166002900480156109605780601f1061093557610100808354040283529160200191610960565b820191906000526020600020905b81548152906001019060200180831161094357829003601f168201915b505050505090806003018054600181600116156101000203166002900480601f0160208091040260200160405190810160405280929190818152602001828054600181600116156101000203166002900480156109fe5780601f106109d3576101008083540402835291602001916109fe565b820191906000526020600020905b8154815290600101906020018083116109e157829003601f168201915b5050505050908060040154908060050154905086565b60036000838152602001908152602001600020600601819080600181540180825580915050906001820390600052602060002001600090919290919091509080519060200190610a65929190610ce6565b50507fbe289b576db7ac9127f1dd173fa015a07a2b79167f95d05185ef7f01f2a69c43338383604051610a9a93929190611215565b60405180910390a15050565b6000610ab0610c8f565b888160000181815250506000891415610ace57428160000181815250505b8781602001819052508681604001819052508581606001819052506000851415610b615760015460026000600154815260200190815260200160002060000181905550836002600060015481526020019081526020016000206001019080519060200190610b3d929190610ce6565b50600154816080018181525050600160008154809291906001019190505550610b6c565b848160800181815250505b828160a001818152505082856000547f57796f5acc4c1eb09e314c16cd1a851c5286df64ee03643ae6c1c0a35629b38a338d8d8d8d604051610bb2959493929190611253565b60405180910390a4806003600080548152602001908152602001600020600082015181600001556020820151816001019080519060200190610bf5929190610d66565b506040820151816002019080519060200190610c12929190610d66565b506060820151816003019080519060200190610c2f929190610d66565b506080820151816004015560a0820151816005015560c0820151816006019080519060200190610c60929190610de6565b509050506000808154809291906001019190505550600060016000540390508092505050979650505050505050565b6040518060e00160405280600081526020016060815260200160608152602001606081526020016000815260200160008152602001606081525090565b604051806040016040528060008152602001606081525090565b828054600181600116156101000203166002900490600052602060002090601f016020900481019282601f10610d2757805160ff1916838001178555610d55565b82800160010185558215610d55579182015b82811115610d54578251825591602001919060010190610d39565b5b509050610d629190610e46565b5090565b828054600181600116156101000203166002900490600052602060002090601f016020900481019282601f10610da757805160ff1916838001178555610dd5565b82800160010185558215610dd5579182015b82811115610dd4578251825591602001919060010190610db9565b5b509050610de29190610e46565b5090565b828054828255906000526020600020908101928215610e35579160200282015b82811115610e34578251829080519060200190610e24929190610d66565b5091602001919060010190610e06565b5b509050610e429190610e6b565b5090565b610e6891905b80821115610e64576000816000905550600101610e4c565b5090565b90565b610e9491905b80821115610e905760008181610e879190610e97565b50600101610e71565b5090565b90565b50805460018160011615610100020316600290046000825580601f10610ebd5750610edc565b601f016020900490600052602060002090810190610edb9190610e46565b5b50565b600082601f830112610ef057600080fd5b8135610f03610efe82611448565b61141b565b91508082526020830160208301858383011115610f1f57600080fd5b610f2a838284611545565b50505092915050565b600081359050610f4281611598565b92915050565b600060208284031215610f5a57600080fd5b6000610f6884828501610f33565b91505092915050565b60008060408385031215610f8457600080fd5b6000610f9285828601610f33565b925050602083013567ffffffffffffffff811115610faf57600080fd5b610fbb85828601610edf565b9150509250929050565b600080600080600080600060e0888a031215610fe057600080fd5b6000610fee8a828b01610f33565b975050602088013567ffffffffffffffff81111561100b57600080fd5b6110178a828b01610edf565b965050604088013567ffffffffffffffff81111561103457600080fd5b6110408a828b01610edf565b955050606088013567ffffffffffffffff81111561105d57600080fd5b6110698a828b01610edf565b945050608061107a8a828b01610f33565b93505060a088013567ffffffffffffffff81111561109757600080fd5b6110a38a828b01610edf565b92505060c06110b48a828b01610f33565b91505092959891949750929550565b60006110cf8383611194565b905092915050565b6110e08161150f565b82525050565b60006110f182611484565b6110fb81856114b2565b93508360208202850161110d85611474565b8060005b85811015611149578484038952815161112a85826110c3565b9450611135836114a5565b925060208a01995050600181019050611111565b50829750879550505050505092915050565b60006111668261149a565b61117081856114d4565b9350611180818560208601611554565b61118981611587565b840191505092915050565b600061119f8261148f565b6111a981856114c3565b93506111b9818560208601611554565b6111c281611587565b840191505092915050565b60006111d88261148f565b6111e281856114d4565b93506111f2818560208601611554565b6111fb81611587565b840191505092915050565b61120f81611505565b82525050565b600060608201905061122a60008301866110d7565b6112376020830185611206565b8181036040830152611249818461115b565b9050949350505050565b600060a08201905061126860008301886110d7565b6112756020830187611206565b8181036040830152611287818661115b565b9050818103606083015261129b818561115b565b905081810360808301526112af818461115b565b90509695505050505050565b600060208201905081810360008301526112d581846110e6565b905092915050565b60006020820190506112f26000830184611206565b92915050565b600060408201905061130d6000830185611206565b818103602083015261131f81846111cd565b90509392505050565b600060c08201905061133d6000830189611206565b818103602083015261134f818861115b565b90508181036040830152611363818761115b565b90508181036060830152611377818661115b565b9050818103608083015261138b818561115b565b905061139a60a0830184611206565b979650505050505050565b600060c0820190506113ba6000830189611206565b81810360208301526113cc81886111cd565b905081810360408301526113e081876111cd565b905081810360608301526113f481866111cd565b90506114036080830185611206565b61141060a0830184611206565b979650505050505050565b6000604051905081810181811067ffffffffffffffff8211171561143e57600080fd5b8060405250919050565b600067ffffffffffffffff82111561145f57600080fd5b601f19601f8301169050602081019050919050565b6000819050602082019050919050565b600081519050919050565b600081519050919050565b600081519050919050565b6000602082019050919050565b600082825260208201905092915050565b600082825260208201905092915050565b600082825260208201905092915050565b600073ffffffffffffffffffffffffffffffffffffffff82169050919050565b6000819050919050565b600061151a82611521565b9050919050565b600061152c82611533565b9050919050565b600061153e826114e5565b9050919050565b82818337600083830152505050565b60005b83811015611572578082015181840152602081019050611557565b83811115611581576000848401525b50505050565b6000601f19601f8301169050919050565b6115a181611505565b81146115ac57600080fd5b5056fea365627a7a723158201eab131c570bc0b62aa507538005d27bdadf24c93a6378502ceee96194e3110e6c6578706572696d656e74616cf564736f6c63430005100040",
  "source": "pragma solidity ^0.5.16;\npragma experimental ABIEncoderV2;\n\n\ncontract Courtify  {\n\t/* STORAGE */\n\n\tuint256 public lastCaseID;\n\tuint256 public totalPetitoner;\n\n\tmapping(uint256 => Petitoner) public petitoners;\n\tmapping(uint256 => Case) public cases;\n\n\tstruct Petitoner {\n\t\tuint256 id;\n\t\tstring name;\n\t}\n\n\tstruct Case {\n\t\tuint256 timestamp;\n\t\tstring state;\n\t\tstring district;\n\t\tstring court;\n\t\tuint256 petitonerID;\n\t\tuint256 caseType;\n\t\tstring[] evidence;\n\t}\n\n\t/* EVENTS */\n\n\t/*\n\t *\n\t */\n\tevent CaseCreated(\n\t\taddress _initiator,\n\t\tuint256 indexed _caseID,\n\t\tuint256 _timestamp,\n\t\tstring _state,\n\t\tstring _district,\n\t\tstring _court,\n\t\tuint256 indexed _petitonerID,\n\t\tuint256 indexed _caseType\n\t);\n\n\t/*\n\t *\n\t */\n\tevent EvidenceAdded(address _initiator, uint256 _caseID, string _IPFS);\n\n\t/* CONSTRUCTOR */\n\n\t/*\n\t *\n\t */\n\tconstructor() public {\n\t\tlastCaseID = 1;\n\t\ttotalPetitoner = 1;\n\t}\n\n\t/* PUBLIC */\n\n\t/*\n\t *\n\t */\n\tfunction createNewCase(\n\t\tuint256 _timestamp,\t\n\t\tstring memory _state,\n\t\tstring memory _district,\n\t\tstring memory _court,\n\t\tuint256 _petitonerID,\n\t\tstring memory _name,\n\t\tuint256 _caseType\n\t) public returns(uint256 caseId)  {\n\t\tuint256 temp = _createNewCase(_timestamp, _state, _district, _court, _petitonerID, _name, _caseType);\n\t\treturn temp;\n\t}\n\n\t/*\n\t *\n\t */\n\tfunction uploadEvidence(uint256 _caseID, string memory _IPFS) public  {\n\t\t_uploadEvidence(_caseID, _IPFS);\n\t}\n\n\t/* INTERNAL */\n\n\t/*\n\t *\n\t */\n\tfunction _createNewCase(\n\t\tuint256 _timestamp,\n\t\tstring memory _state,\n\t\tstring memory _district,\n\t\tstring memory _court,\n\t\tuint256 _petitonerID,\n\t\tstring memory _name,\n\t\tuint256 _caseType\n\t) internal returns(uint256 caseId) {\n\t\tCase memory _case;\n\t\t_case.timestamp = _timestamp;\n\t\tif (_timestamp == 0) {\n\t\t\t_case.timestamp = block.timestamp;\n\t\t}\n\t\t_case.state = _state;\n\t\t_case.district = _district;\n\t\t_case.court = _court;\n\t\tif (_petitonerID == 0) {\n\t\t\tpetitoners[totalPetitoner].id = totalPetitoner;\n\t\t\tpetitoners[totalPetitoner].name = _name;\n\t\t\t_case.petitonerID = totalPetitoner;\n\t\t\ttotalPetitoner++;\n\t\t} else {\n\t\t\t_case.petitonerID = _petitonerID;\n\t\t}\n\t\t_case.caseType = _caseType;\n\t\temit CaseCreated(msg.sender, lastCaseID, _timestamp, _state, _district, _court, _petitonerID, _caseType);\n\t\tcases[lastCaseID] =_case;\n\t\tlastCaseID++;\n\t\tuint256 temp = lastCaseID-1;\n\t\treturn temp;\n\t}\n\n\t/*\n\t *\n\t */\n\tfunction _uploadEvidence(uint256 _caseID, string memory _IPFS) internal {\n\t\tcases[_caseID].evidence.push(_IPFS);\n\t\temit EvidenceAdded(msg.sender, _caseID, _IPFS);\n\t}\n\n\t/* GETTER */\n\n\t/*\n\t *\n\t */\n\tfunction getCase(uint256 _caseID)\n\t\tpublic\n\t\tview\n\t\treturns (\n\t\t\tuint256 _timestamp,\n\t\t\tstring memory _state,\n\t\t\tstring memory _district,\n\t\t\tstring memory _court,\n\t\t\tstring memory name,\n\t\t\tuint256 _caseType\n\t\t)\n\t{\n\t\tCase memory _case = cases[_caseID];\n\t\tPetitoner memory petitoner = petitoners[_case.petitonerID];\n\t\treturn (_case.timestamp, _case.state, _case.district, _case.court, petitoner.name, _case.caseType);\n\t}\n\n\t/*\n\t *\n\t */\n\tfunction getEvidence(uint256 _caseID) public view returns (string[] memory) {\n\t\treturn cases[_caseID].evidence;\n\t}\n}\n",
  "sourcePath": "/home/sj/Desktop/Blockchain/courtify refe/courtify-sc/contracts/Courtify.sol",
  "compiler": {
    "name": "solc",
    "version": "0.5.16+commit.9c3226ce.Emscripten.clang"
  },
  "schemaVersion": "3.2.3",
  "updatedAt": "2021-08-15T10:37:53.512Z",
  "networkType": "ethereum",
  "devdoc": {
    "methods": {}
  },
  "userdoc": {
    "methods": {}
  }
}