{
    "abi": [
        {
            "inputs": [
                {
                    "internalType": "address",
                    "name": "_chiefJustice",
                    "type": "address"
                }
            ],
            "payable": false,
            "stateMutability": "nonpayable",
            "type": "constructor",
            "name": "constructor"
        },
        {
            "anonymous": false,
            "inputs": [
                {
                    "indexed": true,
                    "internalType": "address",
                    "name": "_initiator",
                    "type": "address"
                },
                {
                    "indexed": true,
                    "internalType": "address",
                    "name": "_newAdvocate",
                    "type": "address"
                }
            ],
            "name": "AdvocateAdded",
            "type": "event"
        },
        {
            "anonymous": false,
            "inputs": [
                {
                    "indexed": true,
                    "internalType": "address",
                    "name": "_initiator",
                    "type": "address"
                },
                {
                    "indexed": true,
                    "internalType": "address",
                    "name": "_removedAdvocate",
                    "type": "address"
                }
            ],
            "name": "AdvocateRemoved",
            "type": "event"
        },
        {
            "anonymous": false,
            "inputs": [
                {
                    "indexed": false,
                    "internalType": "address",
                    "name": "_initiator",
                    "type": "address"
                },
                {
                    "indexed": true,
                    "internalType": "uint256",
                    "name": "_caseID",
                    "type": "uint256"
                },
                {
                    "indexed": false,
                    "internalType": "uint256",
                    "name": "_timestamp",
                    "type": "uint256"
                },
                {
                    "indexed": false,
                    "internalType": "string",
                    "name": "_state",
                    "type": "string"
                },
                {
                    "indexed": false,
                    "internalType": "string",
                    "name": "_district",
                    "type": "string"
                },
                {
                    "indexed": false,
                    "internalType": "string",
                    "name": "_court",
                    "type": "string"
                },
                {
                    "indexed": true,
                    "internalType": "uint256",
                    "name": "_petitonerID",
                    "type": "uint256"
                },
                {
                    "indexed": true,
                    "internalType": "uint256",
                    "name": "_caseType",
                    "type": "uint256"
                }
            ],
            "name": "CaseCreated",
            "type": "event"
        },
        {
            "anonymous": false,
            "inputs": [
                {
                    "indexed": true,
                    "internalType": "address",
                    "name": "_oldChiefJustice",
                    "type": "address"
                },
                {
                    "indexed": true,
                    "internalType": "address",
                    "name": "_newChiefJustice",
                    "type": "address"
                }
            ],
            "name": "ChiefJusticeTransferred",
            "type": "event"
        },
        {
            "anonymous": false,
            "inputs": [
                {
                    "indexed": true,
                    "internalType": "address",
                    "name": "_initiator",
                    "type": "address"
                },
                {
                    "indexed": true,
                    "internalType": "address",
                    "name": "_newCourt",
                    "type": "address"
                }
            ],
            "name": "CourtAdded",
            "type": "event"
        },
        {
            "anonymous": false,
            "inputs": [
                {
                    "indexed": true,
                    "internalType": "address",
                    "name": "_initiator",
                    "type": "address"
                },
                {
                    "indexed": true,
                    "internalType": "address",
                    "name": "_removedCourt",
                    "type": "address"
                }
            ],
            "name": "CourtRemoved",
            "type": "event"
        },
        {
            "anonymous": false,
            "inputs": [
                {
                    "indexed": false,
                    "internalType": "address",
                    "name": "_initiator",
                    "type": "address"
                },
                {
                    "indexed": false,
                    "internalType": "uint256",
                    "name": "_caseID",
                    "type": "uint256"
                },
                {
                    "indexed": false,
                    "internalType": "string",
                    "name": "_IPFS",
                    "type": "string"
                }
            ],
            "name": "EvidenceAdded",
            "type": "event"
        },
        {
            "constant": false,
            "inputs": [
                {
                    "internalType": "address",
                    "name": "_newAdvocate",
                    "type": "address"
                }
            ],
            "name": "addAdvocate",
            "outputs": [],
            "payable": false,
            "stateMutability": "nonpayable",
            "type": "function"
        },
        {
            "constant": false,
            "inputs": [
                {
                    "internalType": "address",
                    "name": "_newCourt",
                    "type": "address"
                }
            ],
            "name": "addCourt",
            "outputs": [],
            "payable": false,
            "stateMutability": "nonpayable",
            "type": "function"
        },
        {
            "constant": true,
            "inputs": [
                {
                    "internalType": "uint256",
                    "name": "",
                    "type": "uint256"
                }
            ],
            "name": "cases",
            "outputs": [
                {
                    "internalType": "uint256",
                    "name": "timestamp",
                    "type": "uint256"
                },
                {
                    "internalType": "string",
                    "name": "state",
                    "type": "string"
                },
                {
                    "internalType": "string",
                    "name": "district",
                    "type": "string"
                },
                {
                    "internalType": "string",
                    "name": "court",
                    "type": "string"
                },
                {
                    "internalType": "uint256",
                    "name": "petitonerID",
                    "type": "uint256"
                },
                {
                    "internalType": "uint256",
                    "name": "caseType",
                    "type": "uint256"
                }
            ],
            "payable": false,
            "stateMutability": "view",
            "type": "function"
        },
        {
            "constant": true,
            "inputs": [
                {
                    "internalType": "address",
                    "name": "_addr",
                    "type": "address"
                }
            ],
            "name": "checkAdvocate",
            "outputs": [
                {
                    "internalType": "bool",
                    "name": "",
                    "type": "bool"
                }
            ],
            "payable": false,
            "stateMutability": "view",
            "type": "function"
        },
        {
            "constant": true,
            "inputs": [
                {
                    "internalType": "address",
                    "name": "_addr",
                    "type": "address"
                }
            ],
            "name": "checkCourt",
            "outputs": [
                {
                    "internalType": "bool",
                    "name": "",
                    "type": "bool"
                }
            ],
            "payable": false,
            "stateMutability": "view",
            "type": "function"
        },
        {
            "constant": true,
            "inputs": [],
            "name": "chiefJustice",
            "outputs": [
                {
                    "internalType": "address",
                    "name": "",
                    "type": "address"
                }
            ],
            "payable": false,
            "stateMutability": "view",
            "type": "function"
        },
        {
            "constant": false,
            "inputs": [
                {
                    "internalType": "uint256",
                    "name": "_timestamp",
                    "type": "uint256"
                },
                {
                    "internalType": "string",
                    "name": "_state",
                    "type": "string"
                },
                {
                    "internalType": "string",
                    "name": "_district",
                    "type": "string"
                },
                {
                    "internalType": "string",
                    "name": "_court",
                    "type": "string"
                },
                {
                    "internalType": "uint256",
                    "name": "_petitonerID",
                    "type": "uint256"
                },
                {
                    "internalType": "string",
                    "name": "_name",
                    "type": "string"
                },
                {
                    "internalType": "uint256",
                    "name": "_caseType",
                    "type": "uint256"
                }
            ],
            "name": "createNewCase",
            "outputs": [
                {
                    "internalType": "uint256",
                    "name": "_newCaseID",
                    "type": "uint256"
                }
            ],
            "payable": false,
            "stateMutability": "nonpayable",
            "type": "function"
        },
        {
            "constant": true,
            "inputs": [],
            "name": "getAdvocates",
            "outputs": [
                {
                    "internalType": "address[]",
                    "name": "",
                    "type": "address[]"
                }
            ],
            "payable": false,
            "stateMutability": "view",
            "type": "function"
        },
        {
            "constant": true,
            "inputs": [
                {
                    "internalType": "uint256",
                    "name": "_caseID",
                    "type": "uint256"
                }
            ],
            "name": "getCase",
            "outputs": [
                {
                    "internalType": "uint256",
                    "name": "_timestamp",
                    "type": "uint256"
                },
                {
                    "internalType": "string",
                    "name": "_state",
                    "type": "string"
                },
                {
                    "internalType": "string",
                    "name": "_district",
                    "type": "string"
                },
                {
                    "internalType": "string",
                    "name": "_court",
                    "type": "string"
                },
                {
                    "internalType": "string",
                    "name": "_name",
                    "type": "string"
                },
                {
                    "internalType": "uint256",
                    "name": "_caseType",
                    "type": "uint256"
                }
            ],
            "payable": false,
            "stateMutability": "view",
            "type": "function"
        },
        {
            "constant": true,
            "inputs": [],
            "name": "getCourts",
            "outputs": [
                {
                    "internalType": "address[]",
                    "name": "",
                    "type": "address[]"
                }
            ],
            "payable": false,
            "stateMutability": "view",
            "type": "function"
        },
        {
            "constant": true,
            "inputs": [
                {
                    "internalType": "uint256",
                    "name": "_caseID",
                    "type": "uint256"
                }
            ],
            "name": "getEvidence",
            "outputs": [
                {
                    "internalType": "string[]",
                    "name": "",
                    "type": "string[]"
                }
            ],
            "payable": false,
            "stateMutability": "view",
            "type": "function"
        },
        {
            "constant": true,
            "inputs": [],
            "name": "lastCaseID",
            "outputs": [
                {
                    "internalType": "uint256",
                    "name": "",
                    "type": "uint256"
                }
            ],
            "payable": false,
            "stateMutability": "view",
            "type": "function"
        },
        {
            "constant": true,
            "inputs": [
                {
                    "internalType": "uint256",
                    "name": "",
                    "type": "uint256"
                }
            ],
            "name": "petitoners",
            "outputs": [
                {
                    "internalType": "uint256",
                    "name": "id",
                    "type": "uint256"
                },
                {
                    "internalType": "string",
                    "name": "name",
                    "type": "string"
                }
            ],
            "payable": false,
            "stateMutability": "view",
            "type": "function"
        },
        {
            "constant": false,
            "inputs": [
                {
                    "internalType": "address",
                    "name": "_advocateToRemove",
                    "type": "address"
                }
            ],
            "name": "removeAdvocate",
            "outputs": [],
            "payable": false,
            "stateMutability": "nonpayable",
            "type": "function"
        },
        {
            "constant": false,
            "inputs": [
                {
                    "internalType": "address",
                    "name": "_courtToRemove",
                    "type": "address"
                }
            ],
            "name": "removeCourt",
            "outputs": [],
            "payable": false,
            "stateMutability": "nonpayable",
            "type": "function"
        },
        {
            "constant": true,
            "inputs": [],
            "name": "totalPetitoner",
            "outputs": [
                {
                    "internalType": "uint256",
                    "name": "",
                    "type": "uint256"
                }
            ],
            "payable": false,
            "stateMutability": "view",
            "type": "function"
        },
        {
            "constant": false,
            "inputs": [
                {
                    "internalType": "address",
                    "name": "_newChiefJustice",
                    "type": "address"
                }
            ],
            "name": "transferChiefJustice",
            "outputs": [],
            "payable": false,
            "stateMutability": "nonpayable",
            "type": "function"
        },
        {
            "constant": false,
            "inputs": [
                {
                    "internalType": "uint256",
                    "name": "_caseID",
                    "type": "uint256"
                },
                {
                    "internalType": "string",
                    "name": "_IPFS",
                    "type": "string"
                }
            ],
            "name": "uploadEvidence",
            "outputs": [],
            "payable": false,
            "stateMutability": "nonpayable",
            "type": "function"
        }
    ],
    "bytecode": "60806040523480156200001157600080fd5b5060405162001f6638038062001f668339810160408190526200003491620000d4565b806001600160a01b038116620000675760405162461bcd60e51b81526004016200005e906200015e565b60405180910390fd5b600080546001600160a01b0319166001600160a01b03831690811782556040519091907f47294df112641a93fa467793a25a7ec6b84bd490186e9e7712134ea657a2ed02908290a3505060016005819055600655620001a5565b8051620000ce816200018b565b92915050565b600060208284031215620000e757600080fd5b6000620000f58484620000c1565b949350505050565b60006200010c603f8362000170565b7f436f7572746966795269676874733a204368696566204a75737469636520416481527f64726573732063616e6e6f742062652061207a65726f20416464726573732e00602082015260400192915050565b60208082528101620000ce81620000fd565b90815260200190565b60006001600160a01b038216620000ce565b620001968162000179565b8114620001a257600080fd5b50565b611db180620001b56000396000f3fe608060405234801561001057600080fd5b50600436106101165760003560e01c80639f12632c116100a2578063ca8dbd8d11610071578063ca8dbd8d14610242578063d273a11a1461024a578063da21ad8b1461026b578063e3b7628614610280578063f09790dd1461029357610116565b80639f12632c146101e2578063a91a1080146101ea578063b1316c7f1461020f578063c956f1431461022257610116565b806356966f86116100e957806356966f8614610169578063580d31721461017c578063718643e61461019c5780638ab5e7e2146101af5780638d0f86e5146101c257610116565b80630673d1851461011b578063273192b41461013057806352596bbe1461014e57806356956f0714610161575b600080fd5b61012e6101293660046114d2565b6102b8565b005b6101386102f7565b6040516101459190611acf565b60405180910390f35b61012e61015c3660046114d2565b61035a565b61013861038d565b61012e6101773660046114d2565b6103ed565b61018f61018a3660046114d2565b610420565b6040516101459190611af1565b61012e6101aa366004611516565b61043e565b61012e6101bd3660046114d2565b61047b565b6101d56101d0366004611568565b6104b3565b6040516101459190611b7f565b6101d56104fd565b6101fd6101f83660046114f8565b610503565b60405161014596959493929190611bad565b61012e61021d3660046114d2565b6108fe565b6102356102303660046114f8565b610936565b6040516101459190611ae0565b6101d5610a24565b61025d6102583660046114f8565b610a2a565b604051610145929190611b8d565b610273610ad1565b6040516101459190611a2b565b61018f61028e3660046114d2565b610ae0565b6102a66102a13660046114f8565b610afe565b60405161014596959493929190611c18565b6000546001600160a01b031633146102eb5760405162461bcd60e51b81526004016102e290611b4f565b60405180910390fd5b6102f481610cd3565b50565b6060600180548060200260200160405190810160405280929190818152602001828054801561034f57602002820191906000526020600020905b81546001600160a01b03168152600190910190602001808311610331575b505050505090505b90565b6000546001600160a01b031633146103845760405162461bcd60e51b81526004016102e290611b4f565b6102f481610d44565b6060600280548060200260200160405190810160405280929190818152602001828054801561034f576020028201919060005260206000209081546001600160a01b03168152600190910190602001808311610331575050505050905090565b6000546001600160a01b031633146104175760405162461bcd60e51b81526004016102e290611b4f565b6102f481610eae565b6001600160a01b031660009081526003602052604090205460ff1690565b3360009081526004602052604090205460ff1661046d5760405162461bcd60e51b81526004016102e290611b1f565b6104778282610f99565b5050565b3360009081526003602052604090205460ff166104aa5760405162461bcd60e51b81526004016102e290611b5f565b6102f481611011565b3360009081526003602052604081205460ff166104e25760405162461bcd60e51b81526004016102e290611b5f565b6104f18888888888888861117c565b98975050505050505050565b60065481565b60006060806060806000610515611373565b600860008981526020019081526020016000206040518060e001604052908160008201548152602001600182018054600181600116156101000203166002900480601f0160208091040260200160405190810160405280929190818152602001828054600181600116156101000203166002900480156105d65780601f106105ab576101008083540402835291602001916105d6565b820191906000526020600020905b8154815290600101906020018083116105b957829003601f168201915b5050509183525050600282810180546040805160206001841615610100026000190190931694909404601f810183900483028501830190915280845293810193908301828280156106685780601f1061063d57610100808354040283529160200191610668565b820191906000526020600020905b81548152906001019060200180831161064b57829003601f168201915b505050918352505060038201805460408051602060026001851615610100026000190190941693909304601f81018490048402820184019092528181529382019392918301828280156106fc5780601f106106d1576101008083540402835291602001916106fc565b820191906000526020600020905b8154815290600101906020018083116106df57829003601f168201915b50505050508152602001600482015481526020016005820154815260200160068201805480602002602001604051908101604052809291908181526020016000905b828210156107e95760008481526020908190208301805460408051601f60026000196101006001871615020190941693909304928301859004850281018501909152818152928301828280156107d55780601f106107aa576101008083540402835291602001916107d5565b820191906000526020600020905b8154815290600101906020018083116107b857829003601f168201915b50505050508152602001906001019061073e565b505050508152505090506107fb6113b0565b600760008360800151815260200190815260200160002060405180604001604052908160008201548152602001600182018054600181600116156101000203166002900480601f0160208091040260200160405190810160405280929190818152602001828054600181600116156101000203166002900480156108c05780601f10610895576101008083540402835291602001916108c0565b820191906000526020600020905b8154815290600101906020018083116108a357829003601f168201915b505050919092525050835160208086015160408701516060880151959092015160a090970151929e909d50909b509299509397509295509350505050565b3360009081526003602052604090205460ff1661092d5760405162461bcd60e51b81526004016102e290611b5f565b6102f481611287565b606060086000838152602001908152602001600020600601805480602002602001604051908101604052809291908181526020016000905b82821015610a195760008481526020908190208301805460408051601f6002600019610100600187161502019094169390930492830185900485028101850190915281815292830182828015610a055780601f106109da57610100808354040283529160200191610a05565b820191906000526020600020905b8154815290600101906020018083116109e857829003601f168201915b50505050508152602001906001019061096e565b505050509050919050565b60055481565b6007602090815260009182526040918290208054600180830180548651600293821615610100026000190190911692909204601f810186900486028301860190965285825291949293909290830182828015610ac75780601f10610a9c57610100808354040283529160200191610ac7565b820191906000526020600020905b815481529060010190602001808311610aaa57829003601f168201915b5050505050905082565b6000546001600160a01b031681565b6001600160a01b031660009081526004602052604090205460ff1690565b6008602090815260009182526040918290208054600180830180548651600293821615610100026000190190911692909204601f810186900486028301860190965285825291949293909290830182828015610b9b5780601f10610b7057610100808354040283529160200191610b9b565b820191906000526020600020905b815481529060010190602001808311610b7e57829003601f168201915b50505060028085018054604080516020601f6000196101006001871615020190941695909504928301859004850281018501909152818152959695945090925090830182828015610c2d5780601f10610c0257610100808354040283529160200191610c2d565b820191906000526020600020905b815481529060010190602001808311610c1057829003601f168201915b5050505060038301805460408051602060026001851615610100026000190190941693909304601f8101849004840282018401909252818152949594935090830182828015610cbd5780601f10610c9257610100808354040283529160200191610cbd565b820191906000526020600020905b815481529060010190602001808311610ca057829003601f168201915b5050505050908060040154908060050154905086565b6001600160a01b038116610cf95760405162461bcd60e51b81526004016102e290611b6f565b600080546001600160a01b0319166001600160a01b0383169081178255604051909133917f47294df112641a93fa467793a25a7ec6b84bd490186e9e7712134ea657a2ed029190a350565b6001600160a01b03811660009081526003602052604090205460ff16610d7c5760405162461bcd60e51b81526004016102e290611b2f565b6001600160a01b0381166000908152600360205260408120805460ff19169055600154905b81811015610e455760018181548110610db657fe5b6000918252602090912001546001600160a01b0384811691161415610e3d57600180830381548110610de457fe5b600091825260209091200154600180546001600160a01b039092169183908110610e0a57fe5b9060005260206000200160006101000a8154816001600160a01b0302191690836001600160a01b03160217905550610e45565b600101610da1565b506001805480610e5157fe5b600082815260208120820160001990810180546001600160a01b03191690559091019091556040516001600160a01b0384169133917fb28a0052b26ba870ad72dfdf4840dcc2006186b2f9379c9a6d147ebef45635129190a35050565b6001600160a01b038116610ed45760405162461bcd60e51b81526004016102e290611b6f565b6001600160a01b03811660009081526003602052604090205460ff1615610f0d5760405162461bcd60e51b81526004016102e290611b0f565b6001600160a01b038116600081815260036020526040808220805460ff19166001908117909155805480820182559083527fb10e2d527612073b26eecdfd717e6a320cf44b4afac2b0732d9fcbe2b7fa0cf60180546001600160a01b031916841790555133917f5c91e8dd2cec9ba1919ae216f85e243385a9e1538804b3d836e2b4b78145d8b191a350565b600082815260086020908152604082206006018054600181018083559184529282902084519193610fd093910191908501906113ca565b50507fbe289b576db7ac9127f1dd173fa015a07a2b79167f95d05185ef7f01f2a69c4333838360405161100593929190611a39565b60405180910390a15050565b6001600160a01b03811660009081526004602052604090205460ff166110495760405162461bcd60e51b81526004016102e290611aff565b6001600160a01b0381166000908152600460205260408120805460ff19169055600254905b81811015611113576002818154811061108357fe5b6000918252602090912001546001600160a01b038481169116141561110b57600260018303815481106110b257fe5b600091825260209091200154600280546001600160a01b0390921691839081106110d857fe5b9060005260206000200160006101000a8154816001600160a01b0302191690836001600160a01b03160217905550611113565b60010161106e565b50600280548061111f57fe5b600082815260208120820160001990810180546001600160a01b03191690559091019091556040516001600160a01b0384169133917f8c13bbb0813f6a012a5586cabe469b46bc3c36084f4f9112c0125781a3f1627b9190a35050565b600554600081815260086020526040902088815588611199574281555b87516111ae90600183019060208b01906113ca565b5086516111c490600283019060208a01906113ca565b5085516111da90600383019060208901906113ca565b508461121f576006546000818152600760209081526040909120918255855161120992600101918701906113ca565b5060068054600483018190556001019055611227565b600481018590555b8281600501819055508285837f57796f5acc4c1eb09e314c16cd1a851c5286df64ee03643ae6c1c0a35629b38a338d8d8d8d60405161126a959493929190611a6f565b60405180910390a450600580546001019055979650505050505050565b6001600160a01b0381166112ad5760405162461bcd60e51b81526004016102e290611b6f565b6001600160a01b03811660009081526004602052604090205460ff16156112e65760405162461bcd60e51b81526004016102e290611b3f565b6001600160a01b038116600081815260046020526040808220805460ff1916600190811790915560028054918201815583527f405787fa12a823e0f2b7631cc41b3ba8828b3321ca811111fa75cd3aa3bb5ace0180546001600160a01b031916841790555133917fd43bd4eb3746892d0bf16a55cb28b0a03dadf86d1e0d3501a71db63de9e59b4891a350565b6040518060e00160405280600081526020016060815260200160608152602001606081526020016000815260200160008152602001606081525090565b604051806040016040528060008152602001606081525090565b828054600181600116156101000203166002900490600052602060002090601f016020900481019282601f1061140b57805160ff1916838001178555611438565b82800160010185558215611438579182015b8281111561143857825182559160200191906001019061141d565b50611444929150611448565b5090565b61035791905b80821115611444576000815560010161144e565b803561146d81611d51565b92915050565b600082601f83011261148457600080fd5b813561149761149282611ca3565b611c7c565b915080825260208301602083018583830111156114b357600080fd5b6114be838284611d0b565b50505092915050565b803561146d81611d65565b6000602082840312156114e457600080fd5b60006114f08484611462565b949350505050565b60006020828403121561150a57600080fd5b60006114f084846114c7565b6000806040838503121561152957600080fd5b600061153585856114c7565b925050602083013567ffffffffffffffff81111561155257600080fd5b61155e85828601611473565b9150509250929050565b600080600080600080600060e0888a03121561158357600080fd5b600061158f8a8a6114c7565b975050602088013567ffffffffffffffff8111156115ac57600080fd5b6115b88a828b01611473565b965050604088013567ffffffffffffffff8111156115d557600080fd5b6115e18a828b01611473565b955050606088013567ffffffffffffffff8111156115fe57600080fd5b61160a8a828b01611473565b945050608061161b8a828b016114c7565b93505060a088013567ffffffffffffffff81111561163857600080fd5b6116448a828b01611473565b92505060c06116558a828b016114c7565b91505092959891949750929550565b6000611670838361169a565b505060200190565b60006116848383611773565b9392505050565b61169481611cfa565b82525050565b61169481611cde565b60006116ae82611cd1565b6116b88185611cd5565b93506116c383611ccb565b8060005b838110156116f15781516116db8882611664565b97506116e683611ccb565b9250506001016116c7565b509495945050505050565b600061170782611cd1565b6117118185611cd5565b93508360208202850161172385611ccb565b8060005b8581101561175d57848403895281516117408582611678565b945061174b83611ccb565b60209a909a0199925050600101611727565b5091979650505050505050565b61169481611ce9565b600061177e82611cd1565b6117888185611cd5565b9350611798818560208601611d17565b6117a181611d47565b9093019392505050565b60006117b8602b83611cd5565b7f436f7572746966795269676874733a2041646472657373206973206e6f74206181526a371030b23b37b1b0ba329760a91b602082015260400192915050565b6000611805602b83611cd5565b7f436f7572746966795269676874733a204164647265737320697320616c72656181526a323c90309031b7bab93a1760a91b602082015260400192915050565b6000611852603583611cd5565b7f436f7572746966795269676874733a204f6e6c79204164766f63617465206361815274371031b0b636103a3434b990333ab731ba34b7b71760591b602082015260400192915050565b60006118a9602783611cd5565b7f436f7572746966795269676874733a2041646472657373206973206e6f7420618152661031b7bab93a1760c91b602082015260400192915050565b60006118f2602f83611cd5565b7f436f7572746966795269676874733a204164647265737320697320616c72656181526e323c9030b71030b23b37b1b0ba329760891b602082015260400192915050565b6000611943603a83611cd5565b7f436f7572746966795269676874733a204f6e6c79204368696566204a7573746981527f63652063616e2063616c6c20746869732066756e6374696f6e2e000000000000602082015260400192915050565b60006119a2603283611cd5565b7f436f7572746966795269676874733a204f6e6c7920436f7572742063616e206381527130b636103a3434b990333ab731ba34b7b71760711b602082015260400192915050565b60006119f6602083611cd5565b7f436f7572746966795269676874733a20496e76616c696420416464726573732e815260200192915050565b61169481610357565b6020810161146d828461169a565b60608101611a47828661168b565b611a546020830185611a22565b8181036040830152611a668184611773565b95945050505050565b60a08101611a7d828861168b565b611a8a6020830187611a22565b8181036040830152611a9c8186611773565b90508181036060830152611ab08185611773565b90508181036080830152611ac48184611773565b979650505050505050565b6020808252810161168481846116a3565b6020808252810161168481846116fc565b6020810161146d828461176a565b6020808252810161146d816117ab565b6020808252810161146d816117f8565b6020808252810161146d81611845565b6020808252810161146d8161189c565b6020808252810161146d816118e5565b6020808252810161146d81611936565b6020808252810161146d81611995565b6020808252810161146d816119e9565b6020810161146d8284611a22565b60408101611b9b8285611a22565b81810360208301526114f08184611773565b60c08101611bbb8289611a22565b8181036020830152611bcd8188611773565b90508181036040830152611be18187611773565b90508181036060830152611bf58186611773565b90508181036080830152611c098185611773565b9050611ac460a0830184611a22565b60c08101611c268289611a22565b8181036020830152611c388188611773565b90508181036040830152611c4c8187611773565b90508181036060830152611c608186611773565b9050611c6f6080830185611a22565b611ac460a0830184611a22565b60405181810167ffffffffffffffff81118282101715611c9b57600080fd5b604052919050565b600067ffffffffffffffff821115611cba57600080fd5b506020601f91909101601f19160190565b60200190565b5190565b90815260200190565b600061146d82611cee565b151590565b6001600160a01b031690565b600061146d82600061146d82611cde565b82818337506000910152565b60005b83811015611d32578181015183820152602001611d1a565b83811115611d41576000848401525b50505050565b601f01601f191690565b611d5a81611cde565b81146102f457600080fd5b611d5a8161035756fea365627a7a72315820c55f09052874479492f20e066f48c408fe1901f27ef64edbf88a9d56b7308afb6c6578706572696d656e74616cf564736f6c63430005110040",
    "bytecodeSha1": "515be7ae7ee666313a64eb5bb011b17ce84c66bf",
    "compiler": {
        "evm_version": "istanbul",
        "optimizer": {
            "enabled": true,
            "runs": 200
        },
        "version": "0.5.17+commit.d19bba13"
    },
    "contractName": "Courtify",
    "language": "Solidity",
    "natspec": {
        "methods": {
            "addAdvocate(address)": {
                "details": "Only callable by a Court.",
                "notice": "The function to add a new advocate.",
                "params": {
                    "_newAdvocate": "The address of the new advocate."
                }
            },
            "addCourt(address)": {
                "details": "Only callable by Chief Justice.",
                "notice": "The function to add a new court.",
                "params": {
                    "_newCourt": "The address of the new court."
                }
            },
            "checkAdvocate(address)": {
                "notice": "Checks if the passed address is a advocate or not.",
                "params": {
                    "_addr": "The address to check."
                },
                "return": "True if Advocate, False otherwise."
            },
            "checkCourt(address)": {
                "notice": "Checks if the passed address is an court or not.",
                "params": {
                    "_addr": "The address to check."
                },
                "return": "True if Court, False otherwise."
            },
            "getAdvocates()": {
                "details": "Returns the address array of the advocate.",
                "return": "The list of advocates."
            },
            "getCourts()": {
                "details": "Returns the address array of the courts.",
                "return": "The list of courts."
            },
            "removeAdvocate(address)": {
                "details": "Only callable by a Court.",
                "notice": "The function to remove an advocate.",
                "params": {
                    "_advocateToRemove": "The address of the advocate which should be removed."
                }
            },
            "removeCourt(address)": {
                "details": "Only callable by Chief Justice.",
                "notice": "The function to remove a court.",
                "params": {
                    "_courtToRemove": "The address of the court which should be removed."
                }
            },
            "transferChiefJustice(address)": {
                "details": "Only callable by Chief Justice.",
                "notice": "The function to transfer Chief Justice Position.",
                "params": {
                    "_newChiefJustice": "The address of the new Chief Justice."
                }
            }
        }
    },
    "opcodes": "PUSH1 0x80 PUSH1 0x40 MSTORE CALLVALUE DUP1 ISZERO PUSH2 0x10 JUMPI PUSH1 0x0 DUP1 REVERT JUMPDEST POP PUSH1 0x4 CALLDATASIZE LT PUSH2 0x116 JUMPI PUSH1 0x0 CALLDATALOAD PUSH1 0xE0 SHR DUP1 PUSH4 0x9F12632C GT PUSH2 0xA2 JUMPI DUP1 PUSH4 0xCA8DBD8D GT PUSH2 0x71 JUMPI DUP1 PUSH4 0xCA8DBD8D EQ PUSH2 0x242 JUMPI DUP1 PUSH4 0xD273A11A EQ PUSH2 0x24A JUMPI DUP1 PUSH4 0xDA21AD8B EQ PUSH2 0x26B JUMPI DUP1 PUSH4 0xE3B76286 EQ PUSH2 0x280 JUMPI DUP1 PUSH4 0xF09790DD EQ PUSH2 0x293 JUMPI PUSH2 0x116 JUMP JUMPDEST DUP1 PUSH4 0x9F12632C EQ PUSH2 0x1E2 JUMPI DUP1 PUSH4 0xA91A1080 EQ PUSH2 0x1EA JUMPI DUP1 PUSH4 0xB1316C7F EQ PUSH2 0x20F JUMPI DUP1 PUSH4 0xC956F143 EQ PUSH2 0x222 JUMPI PUSH2 0x116 JUMP JUMPDEST DUP1 PUSH4 0x56966F86 GT PUSH2 0xE9 JUMPI DUP1 PUSH4 0x56966F86 EQ PUSH2 0x169 JUMPI DUP1 PUSH4 0x580D3172 EQ PUSH2 0x17C JUMPI DUP1 PUSH4 0x718643E6 EQ PUSH2 0x19C JUMPI DUP1 PUSH4 0x8AB5E7E2 EQ PUSH2 0x1AF JUMPI DUP1 PUSH4 0x8D0F86E5 EQ PUSH2 0x1C2 JUMPI PUSH2 0x116 JUMP JUMPDEST DUP1 PUSH4 0x673D185 EQ PUSH2 0x11B JUMPI DUP1 PUSH4 0x273192B4 EQ PUSH2 0x130 JUMPI DUP1 PUSH4 0x52596BBE EQ PUSH2 0x14E JUMPI DUP1 PUSH4 0x56956F07 EQ PUSH2 0x161 JUMPI JUMPDEST PUSH1 0x0 DUP1 REVERT JUMPDEST PUSH2 0x12E PUSH2 0x129 CALLDATASIZE PUSH1 0x4 PUSH2 0x14D2 JUMP JUMPDEST PUSH2 0x2B8 JUMP JUMPDEST STOP JUMPDEST PUSH2 0x138 PUSH2 0x2F7 JUMP JUMPDEST PUSH1 0x40 MLOAD PUSH2 0x145 SWAP2 SWAP1 PUSH2 0x1ACF JUMP JUMPDEST PUSH1 0x40 MLOAD DUP1 SWAP2 SUB SWAP1 RETURN JUMPDEST PUSH2 0x12E PUSH2 0x15C CALLDATASIZE PUSH1 0x4 PUSH2 0x14D2 JUMP JUMPDEST PUSH2 0x35A JUMP JUMPDEST PUSH2 0x138 PUSH2 0x38D JUMP JUMPDEST PUSH2 0x12E PUSH2 0x177 CALLDATASIZE PUSH1 0x4 PUSH2 0x14D2 JUMP JUMPDEST PUSH2 0x3ED JUMP JUMPDEST PUSH2 0x18F PUSH2 0x18A CALLDATASIZE PUSH1 0x4 PUSH2 0x14D2 JUMP JUMPDEST PUSH2 0x420 JUMP JUMPDEST PUSH1 0x40 MLOAD PUSH2 0x145 SWAP2 SWAP1 PUSH2 0x1AF1 JUMP JUMPDEST PUSH2 0x12E PUSH2 0x1AA CALLDATASIZE PUSH1 0x4 PUSH2 0x1516 JUMP JUMPDEST PUSH2 0x43E JUMP JUMPDEST PUSH2 0x12E PUSH2 0x1BD CALLDATASIZE PUSH1 0x4 PUSH2 0x14D2 JUMP JUMPDEST PUSH2 0x47B JUMP JUMPDEST PUSH2 0x1D5 PUSH2 0x1D0 CALLDATASIZE PUSH1 0x4 PUSH2 0x1568 JUMP JUMPDEST PUSH2 0x4B3 JUMP JUMPDEST PUSH1 0x40 MLOAD PUSH2 0x145 SWAP2 SWAP1 PUSH2 0x1B7F JUMP JUMPDEST PUSH2 0x1D5 PUSH2 0x4FD JUMP JUMPDEST PUSH2 0x1FD PUSH2 0x1F8 CALLDATASIZE PUSH1 0x4 PUSH2 0x14F8 JUMP JUMPDEST PUSH2 0x503 JUMP JUMPDEST PUSH1 0x40 MLOAD PUSH2 0x145 SWAP7 SWAP6 SWAP5 SWAP4 SWAP3 SWAP2 SWAP1 PUSH2 0x1BAD JUMP JUMPDEST PUSH2 0x12E PUSH2 0x21D CALLDATASIZE PUSH1 0x4 PUSH2 0x14D2 JUMP JUMPDEST PUSH2 0x8FE JUMP JUMPDEST PUSH2 0x235 PUSH2 0x230 CALLDATASIZE PUSH1 0x4 PUSH2 0x14F8 JUMP JUMPDEST PUSH2 0x936 JUMP JUMPDEST PUSH1 0x40 MLOAD PUSH2 0x145 SWAP2 SWAP1 PUSH2 0x1AE0 JUMP JUMPDEST PUSH2 0x1D5 PUSH2 0xA24 JUMP JUMPDEST PUSH2 0x25D PUSH2 0x258 CALLDATASIZE PUSH1 0x4 PUSH2 0x14F8 JUMP JUMPDEST PUSH2 0xA2A JUMP JUMPDEST PUSH1 0x40 MLOAD PUSH2 0x145 SWAP3 SWAP2 SWAP1 PUSH2 0x1B8D JUMP JUMPDEST PUSH2 0x273 PUSH2 0xAD1 JUMP JUMPDEST PUSH1 0x40 MLOAD PUSH2 0x145 SWAP2 SWAP1 PUSH2 0x1A2B JUMP JUMPDEST PUSH2 0x18F PUSH2 0x28E CALLDATASIZE PUSH1 0x4 PUSH2 0x14D2 JUMP JUMPDEST PUSH2 0xAE0 JUMP JUMPDEST PUSH2 0x2A6 PUSH2 0x2A1 CALLDATASIZE PUSH1 0x4 PUSH2 0x14F8 JUMP JUMPDEST PUSH2 0xAFE JUMP JUMPDEST PUSH1 0x40 MLOAD PUSH2 0x145 SWAP7 SWAP6 SWAP5 SWAP4 SWAP3 SWAP2 SWAP1 PUSH2 0x1C18 JUMP JUMPDEST PUSH1 0x0 SLOAD PUSH1 0x1 PUSH1 0x1 PUSH1 0xA0 SHL SUB AND CALLER EQ PUSH2 0x2EB JUMPI PUSH1 0x40 MLOAD PUSH3 0x461BCD PUSH1 0xE5 SHL DUP2 MSTORE PUSH1 0x4 ADD PUSH2 0x2E2 SWAP1 PUSH2 0x1B4F JUMP JUMPDEST PUSH1 0x40 MLOAD DUP1 SWAP2 SUB SWAP1 REVERT JUMPDEST PUSH2 0x2F4 DUP2 PUSH2 0xCD3 JUMP JUMPDEST POP JUMP JUMPDEST PUSH1 0x60 PUSH1 0x1 DUP1 SLOAD DUP1 PUSH1 0x20 MUL PUSH1 0x20 ADD PUSH1 0x40 MLOAD SWAP1 DUP2 ADD PUSH1 0x40 MSTORE DUP1 SWAP3 SWAP2 SWAP1 DUP2 DUP2 MSTORE PUSH1 0x20 ADD DUP3 DUP1 SLOAD DUP1 ISZERO PUSH2 0x34F JUMPI PUSH1 0x20 MUL DUP3 ADD SWAP2 SWAP1 PUSH1 0x0 MSTORE PUSH1 0x20 PUSH1 0x0 KECCAK256 SWAP1 JUMPDEST DUP2 SLOAD PUSH1 0x1 PUSH1 0x1 PUSH1 0xA0 SHL SUB AND DUP2 MSTORE PUSH1 0x1 SWAP1 SWAP2 ADD SWAP1 PUSH1 0x20 ADD DUP1 DUP4 GT PUSH2 0x331 JUMPI JUMPDEST POP POP POP POP POP SWAP1 POP JUMPDEST SWAP1 JUMP JUMPDEST PUSH1 0x0 SLOAD PUSH1 0x1 PUSH1 0x1 PUSH1 0xA0 SHL SUB AND CALLER EQ PUSH2 0x384 JUMPI PUSH1 0x40 MLOAD PUSH3 0x461BCD PUSH1 0xE5 SHL DUP2 MSTORE PUSH1 0x4 ADD PUSH2 0x2E2 SWAP1 PUSH2 0x1B4F JUMP JUMPDEST PUSH2 0x2F4 DUP2 PUSH2 0xD44 JUMP JUMPDEST PUSH1 0x60 PUSH1 0x2 DUP1 SLOAD DUP1 PUSH1 0x20 MUL PUSH1 0x20 ADD PUSH1 0x40 MLOAD SWAP1 DUP2 ADD PUSH1 0x40 MSTORE DUP1 SWAP3 SWAP2 SWAP1 DUP2 DUP2 MSTORE PUSH1 0x20 ADD DUP3 DUP1 SLOAD DUP1 ISZERO PUSH2 0x34F JUMPI PUSH1 0x20 MUL DUP3 ADD SWAP2 SWAP1 PUSH1 0x0 MSTORE PUSH1 0x20 PUSH1 0x0 KECCAK256 SWAP1 DUP2 SLOAD PUSH1 0x1 PUSH1 0x1 PUSH1 0xA0 SHL SUB AND DUP2 MSTORE PUSH1 0x1 SWAP1 SWAP2 ADD SWAP1 PUSH1 0x20 ADD DUP1 DUP4 GT PUSH2 0x331 JUMPI POP POP POP POP POP SWAP1 POP SWAP1 JUMP JUMPDEST PUSH1 0x0 SLOAD PUSH1 0x1 PUSH1 0x1 PUSH1 0xA0 SHL SUB AND CALLER EQ PUSH2 0x417 JUMPI PUSH1 0x40 MLOAD PUSH3 0x461BCD PUSH1 0xE5 SHL DUP2 MSTORE PUSH1 0x4 ADD PUSH2 0x2E2 SWAP1 PUSH2 0x1B4F JUMP JUMPDEST PUSH2 0x2F4 DUP2 PUSH2 0xEAE JUMP JUMPDEST PUSH1 0x1 PUSH1 0x1 PUSH1 0xA0 SHL SUB AND PUSH1 0x0 SWAP1 DUP2 MSTORE PUSH1 0x3 PUSH1 0x20 MSTORE PUSH1 0x40 SWAP1 KECCAK256 SLOAD PUSH1 0xFF AND SWAP1 JUMP JUMPDEST CALLER PUSH1 0x0 SWAP1 DUP2 MSTORE PUSH1 0x4 PUSH1 0x20 MSTORE PUSH1 0x40 SWAP1 KECCAK256 SLOAD PUSH1 0xFF AND PUSH2 0x46D JUMPI PUSH1 0x40 MLOAD PUSH3 0x461BCD PUSH1 0xE5 SHL DUP2 MSTORE PUSH1 0x4 ADD PUSH2 0x2E2 SWAP1 PUSH2 0x1B1F JUMP JUMPDEST PUSH2 0x477 DUP3 DUP3 PUSH2 0xF99 JUMP JUMPDEST POP POP JUMP JUMPDEST CALLER PUSH1 0x0 SWAP1 DUP2 MSTORE PUSH1 0x3 PUSH1 0x20 MSTORE PUSH1 0x40 SWAP1 KECCAK256 SLOAD PUSH1 0xFF AND PUSH2 0x4AA JUMPI PUSH1 0x40 MLOAD PUSH3 0x461BCD PUSH1 0xE5 SHL DUP2 MSTORE PUSH1 0x4 ADD PUSH2 0x2E2 SWAP1 PUSH2 0x1B5F JUMP JUMPDEST PUSH2 0x2F4 DUP2 PUSH2 0x1011 JUMP JUMPDEST CALLER PUSH1 0x0 SWAP1 DUP2 MSTORE PUSH1 0x3 PUSH1 0x20 MSTORE PUSH1 0x40 DUP2 KECCAK256 SLOAD PUSH1 0xFF AND PUSH2 0x4E2 JUMPI PUSH1 0x40 MLOAD PUSH3 0x461BCD PUSH1 0xE5 SHL DUP2 MSTORE PUSH1 0x4 ADD PUSH2 0x2E2 SWAP1 PUSH2 0x1B5F JUMP JUMPDEST PUSH2 0x4F1 DUP9 DUP9 DUP9 DUP9 DUP9 DUP9 DUP9 PUSH2 0x117C JUMP JUMPDEST SWAP9 SWAP8 POP POP POP POP POP POP POP POP JUMP JUMPDEST PUSH1 0x6 SLOAD DUP2 JUMP JUMPDEST PUSH1 0x0 PUSH1 0x60 DUP1 PUSH1 0x60 DUP1 PUSH1 0x0 PUSH2 0x515 PUSH2 0x1373 JUMP JUMPDEST PUSH1 0x8 PUSH1 0x0 DUP10 DUP2 MSTORE PUSH1 0x20 ADD SWAP1 DUP2 MSTORE PUSH1 0x20 ADD PUSH1 0x0 KECCAK256 PUSH1 0x40 MLOAD DUP1 PUSH1 0xE0 ADD PUSH1 0x40 MSTORE SWAP1 DUP2 PUSH1 0x0 DUP3 ADD SLOAD DUP2 MSTORE PUSH1 0x20 ADD PUSH1 0x1 DUP3 ADD DUP1 SLOAD PUSH1 0x1 DUP2 PUSH1 0x1 AND ISZERO PUSH2 0x100 MUL SUB AND PUSH1 0x2 SWAP1 DIV DUP1 PUSH1 0x1F ADD PUSH1 0x20 DUP1 SWAP2 DIV MUL PUSH1 0x20 ADD PUSH1 0x40 MLOAD SWAP1 DUP2 ADD PUSH1 0x40 MSTORE DUP1 SWAP3 SWAP2 SWAP1 DUP2 DUP2 MSTORE PUSH1 0x20 ADD DUP3 DUP1 SLOAD PUSH1 0x1 DUP2 PUSH1 0x1 AND ISZERO PUSH2 0x100 MUL SUB AND PUSH1 0x2 SWAP1 DIV DUP1 ISZERO PUSH2 0x5D6 JUMPI DUP1 PUSH1 0x1F LT PUSH2 0x5AB JUMPI PUSH2 0x100 DUP1 DUP4 SLOAD DIV MUL DUP4 MSTORE SWAP2 PUSH1 0x20 ADD SWAP2 PUSH2 0x5D6 JUMP JUMPDEST DUP3 ADD SWAP2 SWAP1 PUSH1 0x0 MSTORE PUSH1 0x20 PUSH1 0x0 KECCAK256 SWAP1 JUMPDEST DUP2 SLOAD DUP2 MSTORE SWAP1 PUSH1 0x1 ADD SWAP1 PUSH1 0x20 ADD DUP1 DUP4 GT PUSH2 0x5B9 JUMPI DUP3 SWAP1 SUB PUSH1 0x1F AND DUP3 ADD SWAP2 JUMPDEST POP POP POP SWAP2 DUP4 MSTORE POP POP PUSH1 0x2 DUP3 DUP2 ADD DUP1 SLOAD PUSH1 0x40 DUP1 MLOAD PUSH1 0x20 PUSH1 0x1 DUP5 AND ISZERO PUSH2 0x100 MUL PUSH1 0x0 NOT ADD SWAP1 SWAP4 AND SWAP5 SWAP1 SWAP5 DIV PUSH1 0x1F DUP2 ADD DUP4 SWAP1 DIV DUP4 MUL DUP6 ADD DUP4 ADD SWAP1 SWAP2 MSTORE DUP1 DUP5 MSTORE SWAP4 DUP2 ADD SWAP4 SWAP1 DUP4 ADD DUP3 DUP3 DUP1 ISZERO PUSH2 0x668 JUMPI DUP1 PUSH1 0x1F LT PUSH2 0x63D JUMPI PUSH2 0x100 DUP1 DUP4 SLOAD DIV MUL DUP4 MSTORE SWAP2 PUSH1 0x20 ADD SWAP2 PUSH2 0x668 JUMP JUMPDEST DUP3 ADD SWAP2 SWAP1 PUSH1 0x0 MSTORE PUSH1 0x20 PUSH1 0x0 KECCAK256 SWAP1 JUMPDEST DUP2 SLOAD DUP2 MSTORE SWAP1 PUSH1 0x1 ADD SWAP1 PUSH1 0x20 ADD DUP1 DUP4 GT PUSH2 0x64B JUMPI DUP3 SWAP1 SUB PUSH1 0x1F AND DUP3 ADD SWAP2 JUMPDEST POP POP POP SWAP2 DUP4 MSTORE POP POP PUSH1 0x3 DUP3 ADD DUP1 SLOAD PUSH1 0x40 DUP1 MLOAD PUSH1 0x20 PUSH1 0x2 PUSH1 0x1 DUP6 AND ISZERO PUSH2 0x100 MUL PUSH1 0x0 NOT ADD SWAP1 SWAP5 AND SWAP4 SWAP1 SWAP4 DIV PUSH1 0x1F DUP2 ADD DUP5 SWAP1 DIV DUP5 MUL DUP3 ADD DUP5 ADD SWAP1 SWAP3 MSTORE DUP2 DUP2 MSTORE SWAP4 DUP3 ADD SWAP4 SWAP3 SWAP2 DUP4 ADD DUP3 DUP3 DUP1 ISZERO PUSH2 0x6FC JUMPI DUP1 PUSH1 0x1F LT PUSH2 0x6D1 JUMPI PUSH2 0x100 DUP1 DUP4 SLOAD DIV MUL DUP4 MSTORE SWAP2 PUSH1 0x20 ADD SWAP2 PUSH2 0x6FC JUMP JUMPDEST DUP3 ADD SWAP2 SWAP1 PUSH1 0x0 MSTORE PUSH1 0x20 PUSH1 0x0 KECCAK256 SWAP1 JUMPDEST DUP2 SLOAD DUP2 MSTORE SWAP1 PUSH1 0x1 ADD SWAP1 PUSH1 0x20 ADD DUP1 DUP4 GT PUSH2 0x6DF JUMPI DUP3 SWAP1 SUB PUSH1 0x1F AND DUP3 ADD SWAP2 JUMPDEST POP POP POP POP POP DUP2 MSTORE PUSH1 0x20 ADD PUSH1 0x4 DUP3 ADD SLOAD DUP2 MSTORE PUSH1 0x20 ADD PUSH1 0x5 DUP3 ADD SLOAD DUP2 MSTORE PUSH1 0x20 ADD PUSH1 0x6 DUP3 ADD DUP1 SLOAD DUP1 PUSH1 0x20 MUL PUSH1 0x20 ADD PUSH1 0x40 MLOAD SWAP1 DUP2 ADD PUSH1 0x40 MSTORE DUP1 SWAP3 SWAP2 SWAP1 DUP2 DUP2 MSTORE PUSH1 0x20 ADD PUSH1 0x0 SWAP1 JUMPDEST DUP3 DUP3 LT ISZERO PUSH2 0x7E9 JUMPI PUSH1 0x0 DUP5 DUP2 MSTORE PUSH1 0x20 SWAP1 DUP2 SWAP1 KECCAK256 DUP4 ADD DUP1 SLOAD PUSH1 0x40 DUP1 MLOAD PUSH1 0x1F PUSH1 0x2 PUSH1 0x0 NOT PUSH2 0x100 PUSH1 0x1 DUP8 AND ISZERO MUL ADD SWAP1 SWAP5 AND SWAP4 SWAP1 SWAP4 DIV SWAP3 DUP4 ADD DUP6 SWAP1 DIV DUP6 MUL DUP2 ADD DUP6 ADD SWAP1 SWAP2 MSTORE DUP2 DUP2 MSTORE SWAP3 DUP4 ADD DUP3 DUP3 DUP1 ISZERO PUSH2 0x7D5 JUMPI DUP1 PUSH1 0x1F LT PUSH2 0x7AA JUMPI PUSH2 0x100 DUP1 DUP4 SLOAD DIV MUL DUP4 MSTORE SWAP2 PUSH1 0x20 ADD SWAP2 PUSH2 0x7D5 JUMP JUMPDEST DUP3 ADD SWAP2 SWAP1 PUSH1 0x0 MSTORE PUSH1 0x20 PUSH1 0x0 KECCAK256 SWAP1 JUMPDEST DUP2 SLOAD DUP2 MSTORE SWAP1 PUSH1 0x1 ADD SWAP1 PUSH1 0x20 ADD DUP1 DUP4 GT PUSH2 0x7B8 JUMPI DUP3 SWAP1 SUB PUSH1 0x1F AND DUP3 ADD SWAP2 JUMPDEST POP POP POP POP POP DUP2 MSTORE PUSH1 0x20 ADD SWAP1 PUSH1 0x1 ADD SWAP1 PUSH2 0x73E JUMP JUMPDEST POP POP POP POP DUP2 MSTORE POP POP SWAP1 POP PUSH2 0x7FB PUSH2 0x13B0 JUMP JUMPDEST PUSH1 0x7 PUSH1 0x0 DUP4 PUSH1 0x80 ADD MLOAD DUP2 MSTORE PUSH1 0x20 ADD SWAP1 DUP2 MSTORE PUSH1 0x20 ADD PUSH1 0x0 KECCAK256 PUSH1 0x40 MLOAD DUP1 PUSH1 0x40 ADD PUSH1 0x40 MSTORE SWAP1 DUP2 PUSH1 0x0 DUP3 ADD SLOAD DUP2 MSTORE PUSH1 0x20 ADD PUSH1 0x1 DUP3 ADD DUP1 SLOAD PUSH1 0x1 DUP2 PUSH1 0x1 AND ISZERO PUSH2 0x100 MUL SUB AND PUSH1 0x2 SWAP1 DIV DUP1 PUSH1 0x1F ADD PUSH1 0x20 DUP1 SWAP2 DIV MUL PUSH1 0x20 ADD PUSH1 0x40 MLOAD SWAP1 DUP2 ADD PUSH1 0x40 MSTORE DUP1 SWAP3 SWAP2 SWAP1 DUP2 DUP2 MSTORE PUSH1 0x20 ADD DUP3 DUP1 SLOAD PUSH1 0x1 DUP2 PUSH1 0x1 AND ISZERO PUSH2 0x100 MUL SUB AND PUSH1 0x2 SWAP1 DIV DUP1 ISZERO PUSH2 0x8C0 JUMPI DUP1 PUSH1 0x1F LT PUSH2 0x895 JUMPI PUSH2 0x100 DUP1 DUP4 SLOAD DIV MUL DUP4 MSTORE SWAP2 PUSH1 0x20 ADD SWAP2 PUSH2 0x8C0 JUMP JUMPDEST DUP3 ADD SWAP2 SWAP1 PUSH1 0x0 MSTORE PUSH1 0x20 PUSH1 0x0 KECCAK256 SWAP1 JUMPDEST DUP2 SLOAD DUP2 MSTORE SWAP1 PUSH1 0x1 ADD SWAP1 PUSH1 0x20 ADD DUP1 DUP4 GT PUSH2 0x8A3 JUMPI DUP3 SWAP1 SUB PUSH1 0x1F AND DUP3 ADD SWAP2 JUMPDEST POP POP POP SWAP2 SWAP1 SWAP3 MSTORE POP POP DUP4 MLOAD PUSH1 0x20 DUP1 DUP7 ADD MLOAD PUSH1 0x40 DUP8 ADD MLOAD PUSH1 0x60 DUP9 ADD MLOAD SWAP6 SWAP1 SWAP3 ADD MLOAD PUSH1 0xA0 SWAP1 SWAP8 ADD MLOAD SWAP3 SWAP15 SWAP1 SWAP14 POP SWAP1 SWAP12 POP SWAP3 SWAP10 POP SWAP4 SWAP8 POP SWAP3 SWAP6 POP SWAP4 POP POP POP POP JUMP JUMPDEST CALLER PUSH1 0x0 SWAP1 DUP2 MSTORE PUSH1 0x3 PUSH1 0x20 MSTORE PUSH1 0x40 SWAP1 KECCAK256 SLOAD PUSH1 0xFF AND PUSH2 0x92D JUMPI PUSH1 0x40 MLOAD PUSH3 0x461BCD PUSH1 0xE5 SHL DUP2 MSTORE PUSH1 0x4 ADD PUSH2 0x2E2 SWAP1 PUSH2 0x1B5F JUMP JUMPDEST PUSH2 0x2F4 DUP2 PUSH2 0x1287 JUMP JUMPDEST PUSH1 0x60 PUSH1 0x8 PUSH1 0x0 DUP4 DUP2 MSTORE PUSH1 0x20 ADD SWAP1 DUP2 MSTORE PUSH1 0x20 ADD PUSH1 0x0 KECCAK256 PUSH1 0x6 ADD DUP1 SLOAD DUP1 PUSH1 0x20 MUL PUSH1 0x20 ADD PUSH1 0x40 MLOAD SWAP1 DUP2 ADD PUSH1 0x40 MSTORE DUP1 SWAP3 SWAP2 SWAP1 DUP2 DUP2 MSTORE PUSH1 0x20 ADD PUSH1 0x0 SWAP1 JUMPDEST DUP3 DUP3 LT ISZERO PUSH2 0xA19 JUMPI PUSH1 0x0 DUP5 DUP2 MSTORE PUSH1 0x20 SWAP1 DUP2 SWAP1 KECCAK256 DUP4 ADD DUP1 SLOAD PUSH1 0x40 DUP1 MLOAD PUSH1 0x1F PUSH1 0x2 PUSH1 0x0 NOT PUSH2 0x100 PUSH1 0x1 DUP8 AND ISZERO MUL ADD SWAP1 SWAP5 AND SWAP4 SWAP1 SWAP4 DIV SWAP3 DUP4 ADD DUP6 SWAP1 DIV DUP6 MUL DUP2 ADD DUP6 ADD SWAP1 SWAP2 MSTORE DUP2 DUP2 MSTORE SWAP3 DUP4 ADD DUP3 DUP3 DUP1 ISZERO PUSH2 0xA05 JUMPI DUP1 PUSH1 0x1F LT PUSH2 0x9DA JUMPI PUSH2 0x100 DUP1 DUP4 SLOAD DIV MUL DUP4 MSTORE SWAP2 PUSH1 0x20 ADD SWAP2 PUSH2 0xA05 JUMP JUMPDEST DUP3 ADD SWAP2 SWAP1 PUSH1 0x0 MSTORE PUSH1 0x20 PUSH1 0x0 KECCAK256 SWAP1 JUMPDEST DUP2 SLOAD DUP2 MSTORE SWAP1 PUSH1 0x1 ADD SWAP1 PUSH1 0x20 ADD DUP1 DUP4 GT PUSH2 0x9E8 JUMPI DUP3 SWAP1 SUB PUSH1 0x1F AND DUP3 ADD SWAP2 JUMPDEST POP POP POP POP POP DUP2 MSTORE PUSH1 0x20 ADD SWAP1 PUSH1 0x1 ADD SWAP1 PUSH2 0x96E JUMP JUMPDEST POP POP POP POP SWAP1 POP SWAP2 SWAP1 POP JUMP JUMPDEST PUSH1 0x5 SLOAD DUP2 JUMP JUMPDEST PUSH1 0x7 PUSH1 0x20 SWAP1 DUP2 MSTORE PUSH1 0x0 SWAP2 DUP3 MSTORE PUSH1 0x40 SWAP2 DUP3 SWAP1 KECCAK256 DUP1 SLOAD PUSH1 0x1 DUP1 DUP4 ADD DUP1 SLOAD DUP7 MLOAD PUSH1 0x2 SWAP4 DUP3 AND ISZERO PUSH2 0x100 MUL PUSH1 0x0 NOT ADD SWAP1 SWAP2 AND SWAP3 SWAP1 SWAP3 DIV PUSH1 0x1F DUP2 ADD DUP7 SWAP1 DIV DUP7 MUL DUP4 ADD DUP7 ADD SWAP1 SWAP7 MSTORE DUP6 DUP3 MSTORE SWAP2 SWAP5 SWAP3 SWAP4 SWAP1 SWAP3 SWAP1 DUP4 ADD DUP3 DUP3 DUP1 ISZERO PUSH2 0xAC7 JUMPI DUP1 PUSH1 0x1F LT PUSH2 0xA9C JUMPI PUSH2 0x100 DUP1 DUP4 SLOAD DIV MUL DUP4 MSTORE SWAP2 PUSH1 0x20 ADD SWAP2 PUSH2 0xAC7 JUMP JUMPDEST DUP3 ADD SWAP2 SWAP1 PUSH1 0x0 MSTORE PUSH1 0x20 PUSH1 0x0 KECCAK256 SWAP1 JUMPDEST DUP2 SLOAD DUP2 MSTORE SWAP1 PUSH1 0x1 ADD SWAP1 PUSH1 0x20 ADD DUP1 DUP4 GT PUSH2 0xAAA JUMPI DUP3 SWAP1 SUB PUSH1 0x1F AND DUP3 ADD SWAP2 JUMPDEST POP POP POP POP POP SWAP1 POP DUP3 JUMP JUMPDEST PUSH1 0x0 SLOAD PUSH1 0x1 PUSH1 0x1 PUSH1 0xA0 SHL SUB AND DUP2 JUMP JUMPDEST PUSH1 0x1 PUSH1 0x1 PUSH1 0xA0 SHL SUB AND PUSH1 0x0 SWAP1 DUP2 MSTORE PUSH1 0x4 PUSH1 0x20 MSTORE PUSH1 0x40 SWAP1 KECCAK256 SLOAD PUSH1 0xFF AND SWAP1 JUMP JUMPDEST PUSH1 0x8 PUSH1 0x20 SWAP1 DUP2 MSTORE PUSH1 0x0 SWAP2 DUP3 MSTORE PUSH1 0x40 SWAP2 DUP3 SWAP1 KECCAK256 DUP1 SLOAD PUSH1 0x1 DUP1 DUP4 ADD DUP1 SLOAD DUP7 MLOAD PUSH1 0x2 SWAP4 DUP3 AND ISZERO PUSH2 0x100 MUL PUSH1 0x0 NOT ADD SWAP1 SWAP2 AND SWAP3 SWAP1 SWAP3 DIV PUSH1 0x1F DUP2 ADD DUP7 SWAP1 DIV DUP7 MUL DUP4 ADD DUP7 ADD SWAP1 SWAP7 MSTORE DUP6 DUP3 MSTORE SWAP2 SWAP5 SWAP3 SWAP4 SWAP1 SWAP3 SWAP1 DUP4 ADD DUP3 DUP3 DUP1 ISZERO PUSH2 0xB9B JUMPI DUP1 PUSH1 0x1F LT PUSH2 0xB70 JUMPI PUSH2 0x100 DUP1 DUP4 SLOAD DIV MUL DUP4 MSTORE SWAP2 PUSH1 0x20 ADD SWAP2 PUSH2 0xB9B JUMP JUMPDEST DUP3 ADD SWAP2 SWAP1 PUSH1 0x0 MSTORE PUSH1 0x20 PUSH1 0x0 KECCAK256 SWAP1 JUMPDEST DUP2 SLOAD DUP2 MSTORE SWAP1 PUSH1 0x1 ADD SWAP1 PUSH1 0x20 ADD DUP1 DUP4 GT PUSH2 0xB7E JUMPI DUP3 SWAP1 SUB PUSH1 0x1F AND DUP3 ADD SWAP2 JUMPDEST POP POP POP PUSH1 0x2 DUP1 DUP6 ADD DUP1 SLOAD PUSH1 0x40 DUP1 MLOAD PUSH1 0x20 PUSH1 0x1F PUSH1 0x0 NOT PUSH2 0x100 PUSH1 0x1 DUP8 AND ISZERO MUL ADD SWAP1 SWAP5 AND SWAP6 SWAP1 SWAP6 DIV SWAP3 DUP4 ADD DUP6 SWAP1 DIV DUP6 MUL DUP2 ADD DUP6 ADD SWAP1 SWAP2 MSTORE DUP2 DUP2 MSTORE SWAP6 SWAP7 SWAP6 SWAP5 POP SWAP1 SWAP3 POP SWAP1 DUP4 ADD DUP3 DUP3 DUP1 ISZERO PUSH2 0xC2D JUMPI DUP1 PUSH1 0x1F LT PUSH2 0xC02 JUMPI PUSH2 0x100 DUP1 DUP4 SLOAD DIV MUL DUP4 MSTORE SWAP2 PUSH1 0x20 ADD SWAP2 PUSH2 0xC2D JUMP JUMPDEST DUP3 ADD SWAP2 SWAP1 PUSH1 0x0 MSTORE PUSH1 0x20 PUSH1 0x0 KECCAK256 SWAP1 JUMPDEST DUP2 SLOAD DUP2 MSTORE SWAP1 PUSH1 0x1 ADD SWAP1 PUSH1 0x20 ADD DUP1 DUP4 GT PUSH2 0xC10 JUMPI DUP3 SWAP1 SUB PUSH1 0x1F AND DUP3 ADD SWAP2 JUMPDEST POP POP POP POP PUSH1 0x3 DUP4 ADD DUP1 SLOAD PUSH1 0x40 DUP1 MLOAD PUSH1 0x20 PUSH1 0x2 PUSH1 0x1 DUP6 AND ISZERO PUSH2 0x100 MUL PUSH1 0x0 NOT ADD SWAP1 SWAP5 AND SWAP4 SWAP1 SWAP4 DIV PUSH1 0x1F DUP2 ADD DUP5 SWAP1 DIV DUP5 MUL DUP3 ADD DUP5 ADD SWAP1 SWAP3 MSTORE DUP2 DUP2 MSTORE SWAP5 SWAP6 SWAP5 SWAP4 POP SWAP1 DUP4 ADD DUP3 DUP3 DUP1 ISZERO PUSH2 0xCBD JUMPI DUP1 PUSH1 0x1F LT PUSH2 0xC92 JUMPI PUSH2 0x100 DUP1 DUP4 SLOAD DIV MUL DUP4 MSTORE SWAP2 PUSH1 0x20 ADD SWAP2 PUSH2 0xCBD JUMP JUMPDEST DUP3 ADD SWAP2 SWAP1 PUSH1 0x0 MSTORE PUSH1 0x20 PUSH1 0x0 KECCAK256 SWAP1 JUMPDEST DUP2 SLOAD DUP2 MSTORE SWAP1 PUSH1 0x1 ADD SWAP1 PUSH1 0x20 ADD DUP1 DUP4 GT PUSH2 0xCA0 JUMPI DUP3 SWAP1 SUB PUSH1 0x1F AND DUP3 ADD SWAP2 JUMPDEST POP POP POP POP POP SWAP1 DUP1 PUSH1 0x4 ADD SLOAD SWAP1 DUP1 PUSH1 0x5 ADD SLOAD SWAP1 POP DUP7 JUMP JUMPDEST PUSH1 0x1 PUSH1 0x1 PUSH1 0xA0 SHL SUB DUP2 AND PUSH2 0xCF9 JUMPI PUSH1 0x40 MLOAD PUSH3 0x461BCD PUSH1 0xE5 SHL DUP2 MSTORE PUSH1 0x4 ADD PUSH2 0x2E2 SWAP1 PUSH2 0x1B6F JUMP JUMPDEST PUSH1 0x0 DUP1 SLOAD PUSH1 0x1 PUSH1 0x1 PUSH1 0xA0 SHL SUB NOT AND PUSH1 0x1 PUSH1 0x1 PUSH1 0xA0 SHL SUB DUP4 AND SWAP1 DUP2 OR DUP3 SSTORE PUSH1 0x40 MLOAD SWAP1 SWAP2 CALLER SWAP2 PUSH32 0x47294DF112641A93FA467793A25A7EC6B84BD490186E9E7712134EA657A2ED02 SWAP2 SWAP1 LOG3 POP JUMP JUMPDEST PUSH1 0x1 PUSH1 0x1 PUSH1 0xA0 SHL SUB DUP2 AND PUSH1 0x0 SWAP1 DUP2 MSTORE PUSH1 0x3 PUSH1 0x20 MSTORE PUSH1 0x40 SWAP1 KECCAK256 SLOAD PUSH1 0xFF AND PUSH2 0xD7C JUMPI PUSH1 0x40 MLOAD PUSH3 0x461BCD PUSH1 0xE5 SHL DUP2 MSTORE PUSH1 0x4 ADD PUSH2 0x2E2 SWAP1 PUSH2 0x1B2F JUMP JUMPDEST PUSH1 0x1 PUSH1 0x1 PUSH1 0xA0 SHL SUB DUP2 AND PUSH1 0x0 SWAP1 DUP2 MSTORE PUSH1 0x3 PUSH1 0x20 MSTORE PUSH1 0x40 DUP2 KECCAK256 DUP1 SLOAD PUSH1 0xFF NOT AND SWAP1 SSTORE PUSH1 0x1 SLOAD SWAP1 JUMPDEST DUP2 DUP2 LT ISZERO PUSH2 0xE45 JUMPI PUSH1 0x1 DUP2 DUP2 SLOAD DUP2 LT PUSH2 0xDB6 JUMPI INVALID JUMPDEST PUSH1 0x0 SWAP2 DUP3 MSTORE PUSH1 0x20 SWAP1 SWAP2 KECCAK256 ADD SLOAD PUSH1 0x1 PUSH1 0x1 PUSH1 0xA0 SHL SUB DUP5 DUP2 AND SWAP2 AND EQ ISZERO PUSH2 0xE3D JUMPI PUSH1 0x1 DUP1 DUP4 SUB DUP2 SLOAD DUP2 LT PUSH2 0xDE4 JUMPI INVALID JUMPDEST PUSH1 0x0 SWAP2 DUP3 MSTORE PUSH1 0x20 SWAP1 SWAP2 KECCAK256 ADD SLOAD PUSH1 0x1 DUP1 SLOAD PUSH1 0x1 PUSH1 0x1 PUSH1 0xA0 SHL SUB SWAP1 SWAP3 AND SWAP2 DUP4 SWAP1 DUP2 LT PUSH2 0xE0A JUMPI INVALID JUMPDEST SWAP1 PUSH1 0x0 MSTORE PUSH1 0x20 PUSH1 0x0 KECCAK256 ADD PUSH1 0x0 PUSH2 0x100 EXP DUP2 SLOAD DUP2 PUSH1 0x1 PUSH1 0x1 PUSH1 0xA0 SHL SUB MUL NOT AND SWAP1 DUP4 PUSH1 0x1 PUSH1 0x1 PUSH1 0xA0 SHL SUB AND MUL OR SWAP1 SSTORE POP PUSH2 0xE45 JUMP JUMPDEST PUSH1 0x1 ADD PUSH2 0xDA1 JUMP JUMPDEST POP PUSH1 0x1 DUP1 SLOAD DUP1 PUSH2 0xE51 JUMPI INVALID JUMPDEST PUSH1 0x0 DUP3 DUP2 MSTORE PUSH1 0x20 DUP2 KECCAK256 DUP3 ADD PUSH1 0x0 NOT SWAP1 DUP2 ADD DUP1 SLOAD PUSH1 0x1 PUSH1 0x1 PUSH1 0xA0 SHL SUB NOT AND SWAP1 SSTORE SWAP1 SWAP2 ADD SWAP1 SWAP2 SSTORE PUSH1 0x40 MLOAD PUSH1 0x1 PUSH1 0x1 PUSH1 0xA0 SHL SUB DUP5 AND SWAP2 CALLER SWAP2 PUSH32 0xB28A0052B26BA870AD72DFDF4840DCC2006186B2F9379C9A6D147EBEF4563512 SWAP2 SWAP1 LOG3 POP POP JUMP JUMPDEST PUSH1 0x1 PUSH1 0x1 PUSH1 0xA0 SHL SUB DUP2 AND PUSH2 0xED4 JUMPI PUSH1 0x40 MLOAD PUSH3 0x461BCD PUSH1 0xE5 SHL DUP2 MSTORE PUSH1 0x4 ADD PUSH2 0x2E2 SWAP1 PUSH2 0x1B6F JUMP JUMPDEST PUSH1 0x1 PUSH1 0x1 PUSH1 0xA0 SHL SUB DUP2 AND PUSH1 0x0 SWAP1 DUP2 MSTORE PUSH1 0x3 PUSH1 0x20 MSTORE PUSH1 0x40 SWAP1 KECCAK256 SLOAD PUSH1 0xFF AND ISZERO PUSH2 0xF0D JUMPI PUSH1 0x40 MLOAD PUSH3 0x461BCD PUSH1 0xE5 SHL DUP2 MSTORE PUSH1 0x4 ADD PUSH2 0x2E2 SWAP1 PUSH2 0x1B0F JUMP JUMPDEST PUSH1 0x1 PUSH1 0x1 PUSH1 0xA0 SHL SUB DUP2 AND PUSH1 0x0 DUP2 DUP2 MSTORE PUSH1 0x3 PUSH1 0x20 MSTORE PUSH1 0x40 DUP1 DUP3 KECCAK256 DUP1 SLOAD PUSH1 0xFF NOT AND PUSH1 0x1 SWAP1 DUP2 OR SWAP1 SWAP2 SSTORE DUP1 SLOAD DUP1 DUP3 ADD DUP3 SSTORE SWAP1 DUP4 MSTORE PUSH32 0xB10E2D527612073B26EECDFD717E6A320CF44B4AFAC2B0732D9FCBE2B7FA0CF6 ADD DUP1 SLOAD PUSH1 0x1 PUSH1 0x1 PUSH1 0xA0 SHL SUB NOT AND DUP5 OR SWAP1 SSTORE MLOAD CALLER SWAP2 PUSH32 0x5C91E8DD2CEC9BA1919AE216F85E243385A9E1538804B3D836E2B4B78145D8B1 SWAP2 LOG3 POP JUMP JUMPDEST PUSH1 0x0 DUP3 DUP2 MSTORE PUSH1 0x8 PUSH1 0x20 SWAP1 DUP2 MSTORE PUSH1 0x40 DUP3 KECCAK256 PUSH1 0x6 ADD DUP1 SLOAD PUSH1 0x1 DUP2 ADD DUP1 DUP4 SSTORE SWAP2 DUP5 MSTORE SWAP3 DUP3 SWAP1 KECCAK256 DUP5 MLOAD SWAP2 SWAP4 PUSH2 0xFD0 SWAP4 SWAP2 ADD SWAP2 SWAP1 DUP6 ADD SWAP1 PUSH2 0x13CA JUMP JUMPDEST POP POP PUSH32 0xBE289B576DB7AC9127F1DD173FA015A07A2B79167F95D05185EF7F01F2A69C43 CALLER DUP4 DUP4 PUSH1 0x40 MLOAD PUSH2 0x1005 SWAP4 SWAP3 SWAP2 SWAP1 PUSH2 0x1A39 JUMP JUMPDEST PUSH1 0x40 MLOAD DUP1 SWAP2 SUB SWAP1 LOG1 POP POP JUMP JUMPDEST PUSH1 0x1 PUSH1 0x1 PUSH1 0xA0 SHL SUB DUP2 AND PUSH1 0x0 SWAP1 DUP2 MSTORE PUSH1 0x4 PUSH1 0x20 MSTORE PUSH1 0x40 SWAP1 KECCAK256 SLOAD PUSH1 0xFF AND PUSH2 0x1049 JUMPI PUSH1 0x40 MLOAD PUSH3 0x461BCD PUSH1 0xE5 SHL DUP2 MSTORE PUSH1 0x4 ADD PUSH2 0x2E2 SWAP1 PUSH2 0x1AFF JUMP JUMPDEST PUSH1 0x1 PUSH1 0x1 PUSH1 0xA0 SHL SUB DUP2 AND PUSH1 0x0 SWAP1 DUP2 MSTORE PUSH1 0x4 PUSH1 0x20 MSTORE PUSH1 0x40 DUP2 KECCAK256 DUP1 SLOAD PUSH1 0xFF NOT AND SWAP1 SSTORE PUSH1 0x2 SLOAD SWAP1 JUMPDEST DUP2 DUP2 LT ISZERO PUSH2 0x1113 JUMPI PUSH1 0x2 DUP2 DUP2 SLOAD DUP2 LT PUSH2 0x1083 JUMPI INVALID JUMPDEST PUSH1 0x0 SWAP2 DUP3 MSTORE PUSH1 0x20 SWAP1 SWAP2 KECCAK256 ADD SLOAD PUSH1 0x1 PUSH1 0x1 PUSH1 0xA0 SHL SUB DUP5 DUP2 AND SWAP2 AND EQ ISZERO PUSH2 0x110B JUMPI PUSH1 0x2 PUSH1 0x1 DUP4 SUB DUP2 SLOAD DUP2 LT PUSH2 0x10B2 JUMPI INVALID JUMPDEST PUSH1 0x0 SWAP2 DUP3 MSTORE PUSH1 0x20 SWAP1 SWAP2 KECCAK256 ADD SLOAD PUSH1 0x2 DUP1 SLOAD PUSH1 0x1 PUSH1 0x1 PUSH1 0xA0 SHL SUB SWAP1 SWAP3 AND SWAP2 DUP4 SWAP1 DUP2 LT PUSH2 0x10D8 JUMPI INVALID JUMPDEST SWAP1 PUSH1 0x0 MSTORE PUSH1 0x20 PUSH1 0x0 KECCAK256 ADD PUSH1 0x0 PUSH2 0x100 EXP DUP2 SLOAD DUP2 PUSH1 0x1 PUSH1 0x1 PUSH1 0xA0 SHL SUB MUL NOT AND SWAP1 DUP4 PUSH1 0x1 PUSH1 0x1 PUSH1 0xA0 SHL SUB AND MUL OR SWAP1 SSTORE POP PUSH2 0x1113 JUMP JUMPDEST PUSH1 0x1 ADD PUSH2 0x106E JUMP JUMPDEST POP PUSH1 0x2 DUP1 SLOAD DUP1 PUSH2 0x111F JUMPI INVALID JUMPDEST PUSH1 0x0 DUP3 DUP2 MSTORE PUSH1 0x20 DUP2 KECCAK256 DUP3 ADD PUSH1 0x0 NOT SWAP1 DUP2 ADD DUP1 SLOAD PUSH1 0x1 PUSH1 0x1 PUSH1 0xA0 SHL SUB NOT AND SWAP1 SSTORE SWAP1 SWAP2 ADD SWAP1 SWAP2 SSTORE PUSH1 0x40 MLOAD PUSH1 0x1 PUSH1 0x1 PUSH1 0xA0 SHL SUB DUP5 AND SWAP2 CALLER SWAP2 PUSH32 0x8C13BBB0813F6A012A5586CABE469B46BC3C36084F4F9112C0125781A3F1627B SWAP2 SWAP1 LOG3 POP POP JUMP JUMPDEST PUSH1 0x5 SLOAD PUSH1 0x0 DUP2 DUP2 MSTORE PUSH1 0x8 PUSH1 0x20 MSTORE PUSH1 0x40 SWAP1 KECCAK256 DUP9 DUP2 SSTORE DUP9 PUSH2 0x1199 JUMPI TIMESTAMP DUP2 SSTORE JUMPDEST DUP8 MLOAD PUSH2 0x11AE SWAP1 PUSH1 0x1 DUP4 ADD SWAP1 PUSH1 0x20 DUP12 ADD SWAP1 PUSH2 0x13CA JUMP JUMPDEST POP DUP7 MLOAD PUSH2 0x11C4 SWAP1 PUSH1 0x2 DUP4 ADD SWAP1 PUSH1 0x20 DUP11 ADD SWAP1 PUSH2 0x13CA JUMP JUMPDEST POP DUP6 MLOAD PUSH2 0x11DA SWAP1 PUSH1 0x3 DUP4 ADD SWAP1 PUSH1 0x20 DUP10 ADD SWAP1 PUSH2 0x13CA JUMP JUMPDEST POP DUP5 PUSH2 0x121F JUMPI PUSH1 0x6 SLOAD PUSH1 0x0 DUP2 DUP2 MSTORE PUSH1 0x7 PUSH1 0x20 SWAP1 DUP2 MSTORE PUSH1 0x40 SWAP1 SWAP2 KECCAK256 SWAP2 DUP3 SSTORE DUP6 MLOAD PUSH2 0x1209 SWAP3 PUSH1 0x1 ADD SWAP2 DUP8 ADD SWAP1 PUSH2 0x13CA JUMP JUMPDEST POP PUSH1 0x6 DUP1 SLOAD PUSH1 0x4 DUP4 ADD DUP2 SWAP1 SSTORE PUSH1 0x1 ADD SWAP1 SSTORE PUSH2 0x1227 JUMP JUMPDEST PUSH1 0x4 DUP2 ADD DUP6 SWAP1 SSTORE JUMPDEST DUP3 DUP2 PUSH1 0x5 ADD DUP2 SWAP1 SSTORE POP DUP3 DUP6 DUP4 PUSH32 0x57796F5ACC4C1EB09E314C16CD1A851C5286DF64EE03643AE6C1C0A35629B38A CALLER DUP14 DUP14 DUP14 DUP14 PUSH1 0x40 MLOAD PUSH2 0x126A SWAP6 SWAP5 SWAP4 SWAP3 SWAP2 SWAP1 PUSH2 0x1A6F JUMP JUMPDEST PUSH1 0x40 MLOAD DUP1 SWAP2 SUB SWAP1 LOG4 POP PUSH1 0x5 DUP1 SLOAD PUSH1 0x1 ADD SWAP1 SSTORE SWAP8 SWAP7 POP POP POP POP POP POP POP JUMP JUMPDEST PUSH1 0x1 PUSH1 0x1 PUSH1 0xA0 SHL SUB DUP2 AND PUSH2 0x12AD JUMPI PUSH1 0x40 MLOAD PUSH3 0x461BCD PUSH1 0xE5 SHL DUP2 MSTORE PUSH1 0x4 ADD PUSH2 0x2E2 SWAP1 PUSH2 0x1B6F JUMP JUMPDEST PUSH1 0x1 PUSH1 0x1 PUSH1 0xA0 SHL SUB DUP2 AND PUSH1 0x0 SWAP1 DUP2 MSTORE PUSH1 0x4 PUSH1 0x20 MSTORE PUSH1 0x40 SWAP1 KECCAK256 SLOAD PUSH1 0xFF AND ISZERO PUSH2 0x12E6 JUMPI PUSH1 0x40 MLOAD PUSH3 0x461BCD PUSH1 0xE5 SHL DUP2 MSTORE PUSH1 0x4 ADD PUSH2 0x2E2 SWAP1 PUSH2 0x1B3F JUMP JUMPDEST PUSH1 0x1 PUSH1 0x1 PUSH1 0xA0 SHL SUB DUP2 AND PUSH1 0x0 DUP2 DUP2 MSTORE PUSH1 0x4 PUSH1 0x20 MSTORE PUSH1 0x40 DUP1 DUP3 KECCAK256 DUP1 SLOAD PUSH1 0xFF NOT AND PUSH1 0x1 SWAP1 DUP2 OR SWAP1 SWAP2 SSTORE PUSH1 0x2 DUP1 SLOAD SWAP2 DUP3 ADD DUP2 SSTORE DUP4 MSTORE PUSH32 0x405787FA12A823E0F2B7631CC41B3BA8828B3321CA811111FA75CD3AA3BB5ACE ADD DUP1 SLOAD PUSH1 0x1 PUSH1 0x1 PUSH1 0xA0 SHL SUB NOT AND DUP5 OR SWAP1 SSTORE MLOAD CALLER SWAP2 PUSH32 0xD43BD4EB3746892D0BF16A55CB28B0A03DADF86D1E0D3501A71DB63DE9E59B48 SWAP2 LOG3 POP JUMP JUMPDEST PUSH1 0x40 MLOAD DUP1 PUSH1 0xE0 ADD PUSH1 0x40 MSTORE DUP1 PUSH1 0x0 DUP2 MSTORE PUSH1 0x20 ADD PUSH1 0x60 DUP2 MSTORE PUSH1 0x20 ADD PUSH1 0x60 DUP2 MSTORE PUSH1 0x20 ADD PUSH1 0x60 DUP2 MSTORE PUSH1 0x20 ADD PUSH1 0x0 DUP2 MSTORE PUSH1 0x20 ADD PUSH1 0x0 DUP2 MSTORE PUSH1 0x20 ADD PUSH1 0x60 DUP2 MSTORE POP SWAP1 JUMP JUMPDEST PUSH1 0x40 MLOAD DUP1 PUSH1 0x40 ADD PUSH1 0x40 MSTORE DUP1 PUSH1 0x0 DUP2 MSTORE PUSH1 0x20 ADD PUSH1 0x60 DUP2 MSTORE POP SWAP1 JUMP JUMPDEST DUP3 DUP1 SLOAD PUSH1 0x1 DUP2 PUSH1 0x1 AND ISZERO PUSH2 0x100 MUL SUB AND PUSH1 0x2 SWAP1 DIV SWAP1 PUSH1 0x0 MSTORE PUSH1 0x20 PUSH1 0x0 KECCAK256 SWAP1 PUSH1 0x1F ADD PUSH1 0x20 SWAP1 DIV DUP2 ADD SWAP3 DUP3 PUSH1 0x1F LT PUSH2 0x140B JUMPI DUP1 MLOAD PUSH1 0xFF NOT AND DUP4 DUP1 ADD OR DUP6 SSTORE PUSH2 0x1438 JUMP JUMPDEST DUP3 DUP1 ADD PUSH1 0x1 ADD DUP6 SSTORE DUP3 ISZERO PUSH2 0x1438 JUMPI SWAP2 DUP3 ADD JUMPDEST DUP3 DUP2 GT ISZERO PUSH2 0x1438 JUMPI DUP3 MLOAD DUP3 SSTORE SWAP2 PUSH1 0x20 ADD SWAP2 SWAP1 PUSH1 0x1 ADD SWAP1 PUSH2 0x141D JUMP JUMPDEST POP PUSH2 0x1444 SWAP3 SWAP2 POP PUSH2 0x1448 JUMP JUMPDEST POP SWAP1 JUMP JUMPDEST PUSH2 0x357 SWAP2 SWAP1 JUMPDEST DUP1 DUP3 GT ISZERO PUSH2 0x1444 JUMPI PUSH1 0x0 DUP2 SSTORE PUSH1 0x1 ADD PUSH2 0x144E JUMP JUMPDEST DUP1 CALLDATALOAD PUSH2 0x146D DUP2 PUSH2 0x1D51 JUMP JUMPDEST SWAP3 SWAP2 POP POP JUMP JUMPDEST PUSH1 0x0 DUP3 PUSH1 0x1F DUP4 ADD SLT PUSH2 0x1484 JUMPI PUSH1 0x0 DUP1 REVERT JUMPDEST DUP2 CALLDATALOAD PUSH2 0x1497 PUSH2 0x1492 DUP3 PUSH2 0x1CA3 JUMP JUMPDEST PUSH2 0x1C7C JUMP JUMPDEST SWAP2 POP DUP1 DUP3 MSTORE PUSH1 0x20 DUP4 ADD PUSH1 0x20 DUP4 ADD DUP6 DUP4 DUP4 ADD GT ISZERO PUSH2 0x14B3 JUMPI PUSH1 0x0 DUP1 REVERT JUMPDEST PUSH2 0x14BE DUP4 DUP3 DUP5 PUSH2 0x1D0B JUMP JUMPDEST POP POP POP SWAP3 SWAP2 POP POP JUMP JUMPDEST DUP1 CALLDATALOAD PUSH2 0x146D DUP2 PUSH2 0x1D65 JUMP JUMPDEST PUSH1 0x0 PUSH1 0x20 DUP3 DUP5 SUB SLT ISZERO PUSH2 0x14E4 JUMPI PUSH1 0x0 DUP1 REVERT JUMPDEST PUSH1 0x0 PUSH2 0x14F0 DUP5 DUP5 PUSH2 0x1462 JUMP JUMPDEST SWAP5 SWAP4 POP POP POP POP JUMP JUMPDEST PUSH1 0x0 PUSH1 0x20 DUP3 DUP5 SUB SLT ISZERO PUSH2 0x150A JUMPI PUSH1 0x0 DUP1 REVERT JUMPDEST PUSH1 0x0 PUSH2 0x14F0 DUP5 DUP5 PUSH2 0x14C7 JUMP JUMPDEST PUSH1 0x0 DUP1 PUSH1 0x40 DUP4 DUP6 SUB SLT ISZERO PUSH2 0x1529 JUMPI PUSH1 0x0 DUP1 REVERT JUMPDEST PUSH1 0x0 PUSH2 0x1535 DUP6 DUP6 PUSH2 0x14C7 JUMP JUMPDEST SWAP3 POP POP PUSH1 0x20 DUP4 ADD CALLDATALOAD PUSH8 0xFFFFFFFFFFFFFFFF DUP2 GT ISZERO PUSH2 0x1552 JUMPI PUSH1 0x0 DUP1 REVERT JUMPDEST PUSH2 0x155E DUP6 DUP3 DUP7 ADD PUSH2 0x1473 JUMP JUMPDEST SWAP2 POP POP SWAP3 POP SWAP3 SWAP1 POP JUMP JUMPDEST PUSH1 0x0 DUP1 PUSH1 0x0 DUP1 PUSH1 0x0 DUP1 PUSH1 0x0 PUSH1 0xE0 DUP9 DUP11 SUB SLT ISZERO PUSH2 0x1583 JUMPI PUSH1 0x0 DUP1 REVERT JUMPDEST PUSH1 0x0 PUSH2 0x158F DUP11 DUP11 PUSH2 0x14C7 JUMP JUMPDEST SWAP8 POP POP PUSH1 0x20 DUP9 ADD CALLDATALOAD PUSH8 0xFFFFFFFFFFFFFFFF DUP2 GT ISZERO PUSH2 0x15AC JUMPI PUSH1 0x0 DUP1 REVERT JUMPDEST PUSH2 0x15B8 DUP11 DUP3 DUP12 ADD PUSH2 0x1473 JUMP JUMPDEST SWAP7 POP POP PUSH1 0x40 DUP9 ADD CALLDATALOAD PUSH8 0xFFFFFFFFFFFFFFFF DUP2 GT ISZERO PUSH2 0x15D5 JUMPI PUSH1 0x0 DUP1 REVERT JUMPDEST PUSH2 0x15E1 DUP11 DUP3 DUP12 ADD PUSH2 0x1473 JUMP JUMPDEST SWAP6 POP POP PUSH1 0x60 DUP9 ADD CALLDATALOAD PUSH8 0xFFFFFFFFFFFFFFFF DUP2 GT ISZERO PUSH2 0x15FE JUMPI PUSH1 0x0 DUP1 REVERT JUMPDEST PUSH2 0x160A DUP11 DUP3 DUP12 ADD PUSH2 0x1473 JUMP JUMPDEST SWAP5 POP POP PUSH1 0x80 PUSH2 0x161B DUP11 DUP3 DUP12 ADD PUSH2 0x14C7 JUMP JUMPDEST SWAP4 POP POP PUSH1 0xA0 DUP9 ADD CALLDATALOAD PUSH8 0xFFFFFFFFFFFFFFFF DUP2 GT ISZERO PUSH2 0x1638 JUMPI PUSH1 0x0 DUP1 REVERT JUMPDEST PUSH2 0x1644 DUP11 DUP3 DUP12 ADD PUSH2 0x1473 JUMP JUMPDEST SWAP3 POP POP PUSH1 0xC0 PUSH2 0x1655 DUP11 DUP3 DUP12 ADD PUSH2 0x14C7 JUMP JUMPDEST SWAP2 POP POP SWAP3 SWAP6 SWAP9 SWAP2 SWAP5 SWAP8 POP SWAP3 SWAP6 POP JUMP JUMPDEST PUSH1 0x0 PUSH2 0x1670 DUP4 DUP4 PUSH2 0x169A JUMP JUMPDEST POP POP PUSH1 0x20 ADD SWAP1 JUMP JUMPDEST PUSH1 0x0 PUSH2 0x1684 DUP4 DUP4 PUSH2 0x1773 JUMP JUMPDEST SWAP4 SWAP3 POP POP POP JUMP JUMPDEST PUSH2 0x1694 DUP2 PUSH2 0x1CFA JUMP JUMPDEST DUP3 MSTORE POP POP JUMP JUMPDEST PUSH2 0x1694 DUP2 PUSH2 0x1CDE JUMP JUMPDEST PUSH1 0x0 PUSH2 0x16AE DUP3 PUSH2 0x1CD1 JUMP JUMPDEST PUSH2 0x16B8 DUP2 DUP6 PUSH2 0x1CD5 JUMP JUMPDEST SWAP4 POP PUSH2 0x16C3 DUP4 PUSH2 0x1CCB JUMP JUMPDEST DUP1 PUSH1 0x0 JUMPDEST DUP4 DUP2 LT ISZERO PUSH2 0x16F1 JUMPI DUP2 MLOAD PUSH2 0x16DB DUP9 DUP3 PUSH2 0x1664 JUMP JUMPDEST SWAP8 POP PUSH2 0x16E6 DUP4 PUSH2 0x1CCB JUMP JUMPDEST SWAP3 POP POP PUSH1 0x1 ADD PUSH2 0x16C7 JUMP JUMPDEST POP SWAP5 SWAP6 SWAP5 POP POP POP POP POP JUMP JUMPDEST PUSH1 0x0 PUSH2 0x1707 DUP3 PUSH2 0x1CD1 JUMP JUMPDEST PUSH2 0x1711 DUP2 DUP6 PUSH2 0x1CD5 JUMP JUMPDEST SWAP4 POP DUP4 PUSH1 0x20 DUP3 MUL DUP6 ADD PUSH2 0x1723 DUP6 PUSH2 0x1CCB JUMP JUMPDEST DUP1 PUSH1 0x0 JUMPDEST DUP6 DUP2 LT ISZERO PUSH2 0x175D JUMPI DUP5 DUP5 SUB DUP10 MSTORE DUP2 MLOAD PUSH2 0x1740 DUP6 DUP3 PUSH2 0x1678 JUMP JUMPDEST SWAP5 POP PUSH2 0x174B DUP4 PUSH2 0x1CCB JUMP JUMPDEST PUSH1 0x20 SWAP11 SWAP1 SWAP11 ADD SWAP10 SWAP3 POP POP PUSH1 0x1 ADD PUSH2 0x1727 JUMP JUMPDEST POP SWAP2 SWAP8 SWAP7 POP POP POP POP POP POP POP JUMP JUMPDEST PUSH2 0x1694 DUP2 PUSH2 0x1CE9 JUMP JUMPDEST PUSH1 0x0 PUSH2 0x177E DUP3 PUSH2 0x1CD1 JUMP JUMPDEST PUSH2 0x1788 DUP2 DUP6 PUSH2 0x1CD5 JUMP JUMPDEST SWAP4 POP PUSH2 0x1798 DUP2 DUP6 PUSH1 0x20 DUP7 ADD PUSH2 0x1D17 JUMP JUMPDEST PUSH2 0x17A1 DUP2 PUSH2 0x1D47 JUMP JUMPDEST SWAP1 SWAP4 ADD SWAP4 SWAP3 POP POP POP JUMP JUMPDEST PUSH1 0x0 PUSH2 0x17B8 PUSH1 0x2B DUP4 PUSH2 0x1CD5 JUMP JUMPDEST PUSH32 0x436F7572746966795269676874733A2041646472657373206973206E6F742061 DUP2 MSTORE PUSH11 0x371030B23B37B1B0BA3297 PUSH1 0xA9 SHL PUSH1 0x20 DUP3 ADD MSTORE PUSH1 0x40 ADD SWAP3 SWAP2 POP POP JUMP JUMPDEST PUSH1 0x0 PUSH2 0x1805 PUSH1 0x2B DUP4 PUSH2 0x1CD5 JUMP JUMPDEST PUSH32 0x436F7572746966795269676874733A204164647265737320697320616C726561 DUP2 MSTORE PUSH11 0x323C90309031B7BAB93A17 PUSH1 0xA9 SHL PUSH1 0x20 DUP3 ADD MSTORE PUSH1 0x40 ADD SWAP3 SWAP2 POP POP JUMP JUMPDEST PUSH1 0x0 PUSH2 0x1852 PUSH1 0x35 DUP4 PUSH2 0x1CD5 JUMP JUMPDEST PUSH32 0x436F7572746966795269676874733A204F6E6C79204164766F63617465206361 DUP2 MSTORE PUSH21 0x371031B0B636103A3434B990333AB731BA34B7B717 PUSH1 0x59 SHL PUSH1 0x20 DUP3 ADD MSTORE PUSH1 0x40 ADD SWAP3 SWAP2 POP POP JUMP JUMPDEST PUSH1 0x0 PUSH2 0x18A9 PUSH1 0x27 DUP4 PUSH2 0x1CD5 JUMP JUMPDEST PUSH32 0x436F7572746966795269676874733A2041646472657373206973206E6F742061 DUP2 MSTORE PUSH7 0x1031B7BAB93A17 PUSH1 0xC9 SHL PUSH1 0x20 DUP3 ADD MSTORE PUSH1 0x40 ADD SWAP3 SWAP2 POP POP JUMP JUMPDEST PUSH1 0x0 PUSH2 0x18F2 PUSH1 0x2F DUP4 PUSH2 0x1CD5 JUMP JUMPDEST PUSH32 0x436F7572746966795269676874733A204164647265737320697320616C726561 DUP2 MSTORE PUSH15 0x323C9030B71030B23B37B1B0BA3297 PUSH1 0x89 SHL PUSH1 0x20 DUP3 ADD MSTORE PUSH1 0x40 ADD SWAP3 SWAP2 POP POP JUMP JUMPDEST PUSH1 0x0 PUSH2 0x1943 PUSH1 0x3A DUP4 PUSH2 0x1CD5 JUMP JUMPDEST PUSH32 0x436F7572746966795269676874733A204F6E6C79204368696566204A75737469 DUP2 MSTORE PUSH32 0x63652063616E2063616C6C20746869732066756E6374696F6E2E000000000000 PUSH1 0x20 DUP3 ADD MSTORE PUSH1 0x40 ADD SWAP3 SWAP2 POP POP JUMP JUMPDEST PUSH1 0x0 PUSH2 0x19A2 PUSH1 0x32 DUP4 PUSH2 0x1CD5 JUMP JUMPDEST PUSH32 0x436F7572746966795269676874733A204F6E6C7920436F7572742063616E2063 DUP2 MSTORE PUSH18 0x30B636103A3434B990333AB731BA34B7B717 PUSH1 0x71 SHL PUSH1 0x20 DUP3 ADD MSTORE PUSH1 0x40 ADD SWAP3 SWAP2 POP POP JUMP JUMPDEST PUSH1 0x0 PUSH2 0x19F6 PUSH1 0x20 DUP4 PUSH2 0x1CD5 JUMP JUMPDEST PUSH32 0x436F7572746966795269676874733A20496E76616C696420416464726573732E DUP2 MSTORE PUSH1 0x20 ADD SWAP3 SWAP2 POP POP JUMP JUMPDEST PUSH2 0x1694 DUP2 PUSH2 0x357 JUMP JUMPDEST PUSH1 0x20 DUP2 ADD PUSH2 0x146D DUP3 DUP5 PUSH2 0x169A JUMP JUMPDEST PUSH1 0x60 DUP2 ADD PUSH2 0x1A47 DUP3 DUP7 PUSH2 0x168B JUMP JUMPDEST PUSH2 0x1A54 PUSH1 0x20 DUP4 ADD DUP6 PUSH2 0x1A22 JUMP JUMPDEST DUP2 DUP2 SUB PUSH1 0x40 DUP4 ADD MSTORE PUSH2 0x1A66 DUP2 DUP5 PUSH2 0x1773 JUMP JUMPDEST SWAP6 SWAP5 POP POP POP POP POP JUMP JUMPDEST PUSH1 0xA0 DUP2 ADD PUSH2 0x1A7D DUP3 DUP9 PUSH2 0x168B JUMP JUMPDEST PUSH2 0x1A8A PUSH1 0x20 DUP4 ADD DUP8 PUSH2 0x1A22 JUMP JUMPDEST DUP2 DUP2 SUB PUSH1 0x40 DUP4 ADD MSTORE PUSH2 0x1A9C DUP2 DUP7 PUSH2 0x1773 JUMP JUMPDEST SWAP1 POP DUP2 DUP2 SUB PUSH1 0x60 DUP4 ADD MSTORE PUSH2 0x1AB0 DUP2 DUP6 PUSH2 0x1773 JUMP JUMPDEST SWAP1 POP DUP2 DUP2 SUB PUSH1 0x80 DUP4 ADD MSTORE PUSH2 0x1AC4 DUP2 DUP5 PUSH2 0x1773 JUMP JUMPDEST SWAP8 SWAP7 POP POP POP POP POP POP POP JUMP JUMPDEST PUSH1 0x20 DUP1 DUP3 MSTORE DUP2 ADD PUSH2 0x1684 DUP2 DUP5 PUSH2 0x16A3 JUMP JUMPDEST PUSH1 0x20 DUP1 DUP3 MSTORE DUP2 ADD PUSH2 0x1684 DUP2 DUP5 PUSH2 0x16FC JUMP JUMPDEST PUSH1 0x20 DUP2 ADD PUSH2 0x146D DUP3 DUP5 PUSH2 0x176A JUMP JUMPDEST PUSH1 0x20 DUP1 DUP3 MSTORE DUP2 ADD PUSH2 0x146D DUP2 PUSH2 0x17AB JUMP JUMPDEST PUSH1 0x20 DUP1 DUP3 MSTORE DUP2 ADD PUSH2 0x146D DUP2 PUSH2 0x17F8 JUMP JUMPDEST PUSH1 0x20 DUP1 DUP3 MSTORE DUP2 ADD PUSH2 0x146D DUP2 PUSH2 0x1845 JUMP JUMPDEST PUSH1 0x20 DUP1 DUP3 MSTORE DUP2 ADD PUSH2 0x146D DUP2 PUSH2 0x189C JUMP JUMPDEST PUSH1 0x20 DUP1 DUP3 MSTORE DUP2 ADD PUSH2 0x146D DUP2 PUSH2 0x18E5 JUMP JUMPDEST PUSH1 0x20 DUP1 DUP3 MSTORE DUP2 ADD PUSH2 0x146D DUP2 PUSH2 0x1936 JUMP JUMPDEST PUSH1 0x20 DUP1 DUP3 MSTORE DUP2 ADD PUSH2 0x146D DUP2 PUSH2 0x1995 JUMP JUMPDEST PUSH1 0x20 DUP1 DUP3 MSTORE DUP2 ADD PUSH2 0x146D DUP2 PUSH2 0x19E9 JUMP JUMPDEST PUSH1 0x20 DUP2 ADD PUSH2 0x146D DUP3 DUP5 PUSH2 0x1A22 JUMP JUMPDEST PUSH1 0x40 DUP2 ADD PUSH2 0x1B9B DUP3 DUP6 PUSH2 0x1A22 JUMP JUMPDEST DUP2 DUP2 SUB PUSH1 0x20 DUP4 ADD MSTORE PUSH2 0x14F0 DUP2 DUP5 PUSH2 0x1773 JUMP JUMPDEST PUSH1 0xC0 DUP2 ADD PUSH2 0x1BBB DUP3 DUP10 PUSH2 0x1A22 JUMP JUMPDEST DUP2 DUP2 SUB PUSH1 0x20 DUP4 ADD MSTORE PUSH2 0x1BCD DUP2 DUP9 PUSH2 0x1773 JUMP JUMPDEST SWAP1 POP DUP2 DUP2 SUB PUSH1 0x40 DUP4 ADD MSTORE PUSH2 0x1BE1 DUP2 DUP8 PUSH2 0x1773 JUMP JUMPDEST SWAP1 POP DUP2 DUP2 SUB PUSH1 0x60 DUP4 ADD MSTORE PUSH2 0x1BF5 DUP2 DUP7 PUSH2 0x1773 JUMP JUMPDEST SWAP1 POP DUP2 DUP2 SUB PUSH1 0x80 DUP4 ADD MSTORE PUSH2 0x1C09 DUP2 DUP6 PUSH2 0x1773 JUMP JUMPDEST SWAP1 POP PUSH2 0x1AC4 PUSH1 0xA0 DUP4 ADD DUP5 PUSH2 0x1A22 JUMP JUMPDEST PUSH1 0xC0 DUP2 ADD PUSH2 0x1C26 DUP3 DUP10 PUSH2 0x1A22 JUMP JUMPDEST DUP2 DUP2 SUB PUSH1 0x20 DUP4 ADD MSTORE PUSH2 0x1C38 DUP2 DUP9 PUSH2 0x1773 JUMP JUMPDEST SWAP1 POP DUP2 DUP2 SUB PUSH1 0x40 DUP4 ADD MSTORE PUSH2 0x1C4C DUP2 DUP8 PUSH2 0x1773 JUMP JUMPDEST SWAP1 POP DUP2 DUP2 SUB PUSH1 0x60 DUP4 ADD MSTORE PUSH2 0x1C60 DUP2 DUP7 PUSH2 0x1773 JUMP JUMPDEST SWAP1 POP PUSH2 0x1C6F PUSH1 0x80 DUP4 ADD DUP6 PUSH2 0x1A22 JUMP JUMPDEST PUSH2 0x1AC4 PUSH1 0xA0 DUP4 ADD DUP5 PUSH2 0x1A22 JUMP JUMPDEST PUSH1 0x40 MLOAD DUP2 DUP2 ADD PUSH8 0xFFFFFFFFFFFFFFFF DUP2 GT DUP3 DUP3 LT OR ISZERO PUSH2 0x1C9B JUMPI PUSH1 0x0 DUP1 REVERT JUMPDEST PUSH1 0x40 MSTORE SWAP2 SWAP1 POP JUMP JUMPDEST PUSH1 0x0 PUSH8 0xFFFFFFFFFFFFFFFF DUP3 GT ISZERO PUSH2 0x1CBA JUMPI PUSH1 0x0 DUP1 REVERT JUMPDEST POP PUSH1 0x20 PUSH1 0x1F SWAP2 SWAP1 SWAP2 ADD PUSH1 0x1F NOT AND ADD SWAP1 JUMP JUMPDEST PUSH1 0x20 ADD SWAP1 JUMP JUMPDEST MLOAD SWAP1 JUMP JUMPDEST SWAP1 DUP2 MSTORE PUSH1 0x20 ADD SWAP1 JUMP JUMPDEST PUSH1 0x0 PUSH2 0x146D DUP3 PUSH2 0x1CEE JUMP JUMPDEST ISZERO ISZERO SWAP1 JUMP JUMPDEST PUSH1 0x1 PUSH1 0x1 PUSH1 0xA0 SHL SUB AND SWAP1 JUMP JUMPDEST PUSH1 0x0 PUSH2 0x146D DUP3 PUSH1 0x0 PUSH2 0x146D DUP3 PUSH2 0x1CDE JUMP JUMPDEST DUP3 DUP2 DUP4 CALLDATACOPY POP PUSH1 0x0 SWAP2 ADD MSTORE JUMP JUMPDEST PUSH1 0x0 JUMPDEST DUP4 DUP2 LT ISZERO PUSH2 0x1D32 JUMPI DUP2 DUP2 ADD MLOAD DUP4 DUP3 ADD MSTORE PUSH1 0x20 ADD PUSH2 0x1D1A JUMP JUMPDEST DUP4 DUP2 GT ISZERO PUSH2 0x1D41 JUMPI PUSH1 0x0 DUP5 DUP5 ADD MSTORE JUMPDEST POP POP POP POP JUMP JUMPDEST PUSH1 0x1F ADD PUSH1 0x1F NOT AND SWAP1 JUMP JUMPDEST PUSH2 0x1D5A DUP2 PUSH2 0x1CDE JUMP JUMPDEST DUP2 EQ PUSH2 0x2F4 JUMPI PUSH1 0x0 DUP1 REVERT JUMPDEST PUSH2 0x1D5A DUP2 PUSH2 0x357 JUMP INVALID LOG3 PUSH6 0x627A7A723158 KECCAK256 0xC5 0x5F MULMOD SDIV 0x28 PUSH21 0x479492F20E066F48C408FE1901F27EF64EDBF88A9D JUMP 0xB7 ADDRESS DUP11 0xFB PUSH13 0x6578706572696D656E74616CF5 PUSH5 0x736F6C6343 STOP SDIV GT STOP BLOCKHASH ",
    "sha1": "0448b635967b5e3ecec8eb294b73122f1f8bfd68",
    "source": "pragma solidity ^0.5.16;\npragma experimental ABIEncoderV2;\n\nimport \"./CourtifyRights.sol\";\n\ncontract Courtify is CourtifyRights {\n\t/* STORAGE */\n\n\tuint256 public lastCaseID;\n\tuint256 public totalPetitoner;\n\n\tmapping(uint256 => Petitoner) public petitoners;\n\tmapping(uint256 => Case) public cases;\n\n\tstruct Petitoner {\n\t\tuint256 id;\n\t\tstring name;\n\t}\n\n\tstruct Case {\n\t\tuint256 timestamp;\n\t\tstring state;\n\t\tstring district;\n\t\tstring court;\n\t\tuint256 petitonerID;\n\t\tuint256 caseType;\n\t\tstring[] evidence;\n\t}\n\n\t/* EVENTS */\n\n\t/*\n\t * @notice Emitted when case is created.\n\t * @param _initiator The one who initiates the event.\n\t * @param _caseID The new case id which was created.\n\t * @param _timestamp The time when the case was created.\n\t * @param _state The state where the case was created.\n\t * @param _district The district where the case was created.\n\t * @param _court The court where the case was created.\n\t * @param _petitonerID The Petitioner ID.\n\t * @param _caseType The case type.\n\t */\n\tevent CaseCreated(\n\t\taddress _initiator,\n\t\tuint256 indexed _caseID,\n\t\tuint256 _timestamp,\n\t\tstring _state,\n\t\tstring _district,\n\t\tstring _court,\n\t\tuint256 indexed _petitonerID,\n\t\tuint256 indexed _caseType\n\t);\n\n\t/*\n\t * @notice Emitted when the case is created.\n\t * @param _initiator The one who initiates the event.\n\t * @param _caseID The case ID for which the evidence was added.\n\t * @param _IPFS The IPFS hash.\n\t */\n\tevent EvidenceAdded(address _initiator, uint256 _caseID, string _IPFS);\n\n\t/* CONSTRUCTOR */\n\n\t/*\n\t * @param _chiefJustice The Chief Justice Address.\n\t * @dev _chiefJustice cannot be a zero address.\n\t */\n\tconstructor(address _chiefJustice) public CourtifyRights(_chiefJustice) {\n\t\tlastCaseID = 1;\n\t\ttotalPetitoner = 1;\n\t}\n\n\t/* PUBLIC */\n\n\t/*\n\t * @notice Function to create a new case.\n\t * @param _timestamp The time when the case was created.\n\t * @param _state The state where the case was created.\n\t * @param _district The district where the case was created.\n\t * @param _court The court where the case was created.\n\t * @param _petitonerID The Petitioner ID.\n\t * @param _name The Petitioner Name.\n\t * @param _caseType The case type.\n\t * @return _newCaseID The new case id which was created.\n\t */\n\tfunction createNewCase(\n\t\tuint256 _timestamp,\n\t\tstring memory _state,\n\t\tstring memory _district,\n\t\tstring memory _court,\n\t\tuint256 _petitonerID,\n\t\tstring memory _name,\n\t\tuint256 _caseType\n\t) public onlyCourt returns (uint256 _newCaseID) {\n\t\t_newCaseID = _createNewCase(_timestamp, _state, _district, _court, _petitonerID, _name, _caseType);\n\t}\n\n\t/*\n\t * @notice Function to upload the evidence.\n\t * @param _caseID The case ID for which the evidence will be added.\n\t * @param _IPFS The IPFS hash.\n\t */\n\tfunction uploadEvidence(uint256 _caseID, string memory _IPFS) public onlyAdvocate {\n\t\t_uploadEvidence(_caseID, _IPFS);\n\t}\n\n\t/* INTERNAL */\n\n\t/*\n\t * @param _timestamp The time when the case was created.\n\t * @param _state The state where the case was created.\n\t * @param _district The district where the case was created.\n\t * @param _court The court where the case was created.\n\t * @param _petitonerID The Petitioner ID.\n\t * @param _name The Petitioner Name.\n\t * @param _caseType The case type.\n\t * @return _newCaseID The new case id which was created.\n\t * @dev The internal function which creates a new case.\n\t */\n\tfunction _createNewCase(\n\t\tuint256 _timestamp,\n\t\tstring memory _state,\n\t\tstring memory _district,\n\t\tstring memory _court,\n\t\tuint256 _petitonerID,\n\t\tstring memory _name,\n\t\tuint256 _caseType\n\t) internal returns (uint256 _newCaseID) {\n\t\t_newCaseID = lastCaseID;\n\t\tCase storage _case = cases[_newCaseID];\n\t\t_case.timestamp = _timestamp;\n\t\tif (_timestamp == 0) {\n\t\t\t_case.timestamp = block.timestamp;\n\t\t}\n\t\t_case.state = _state;\n\t\t_case.district = _district;\n\t\t_case.court = _court;\n\t\tif (_petitonerID == 0) {\n\t\t\tpetitoners[totalPetitoner].id = totalPetitoner;\n\t\t\tpetitoners[totalPetitoner].name = _name;\n\t\t\t_case.petitonerID = totalPetitoner;\n\t\t\ttotalPetitoner++;\n\t\t} else {\n\t\t\t_case.petitonerID = _petitonerID;\n\t\t}\n\t\t_case.caseType = _caseType;\n\t\temit CaseCreated(msg.sender, _newCaseID, _timestamp, _state, _district, _court, _petitonerID, _caseType);\n\t\tlastCaseID++;\n\t}\n\n\t/*\n\t * @param _caseID The case ID for which the evidence will be added.\n\t * @param _IPFS The IPFS hash.\n\t * @dev Internal function to upload the evidence.\n\t */\n\tfunction _uploadEvidence(uint256 _caseID, string memory _IPFS) internal {\n\t\tcases[_caseID].evidence.push(_IPFS);\n\t\temit EvidenceAdded(msg.sender, _caseID, _IPFS);\n\t}\n\n\t/* GETTER */\n\n\t/*\n\t * @notice Function to get the case details.\n\t * @param _caseID The case ID which has to be queried.\n\t * @return _timestamp The time when the case was created.\n\t * @return _state The state where the case was created.\n\t * @return _district The district where the case was created.\n\t * @return _court The court where the case was created.\n\t * @return _name The Petitioner Name.\n\t * @return _caseType The case type.\n\t */\n\tfunction getCase(uint256 _caseID)\n\t\tpublic\n\t\tview\n\t\treturns (\n\t\t\tuint256 _timestamp,\n\t\t\tstring memory _state,\n\t\t\tstring memory _district,\n\t\t\tstring memory _court,\n\t\t\tstring memory _name,\n\t\t\tuint256 _caseType\n\t\t)\n\t{\n\t\tCase memory _case = cases[_caseID];\n\t\tPetitoner memory petitoner = petitoners[_case.petitonerID];\n\t\treturn (_case.timestamp, _case.state, _case.district, _case.court, petitoner.name, _case.caseType);\n\t}\n\n\t/*\n\t * @notice Function to get the evidence of a case.\n\t * @param _caseID The case ID which has to be queried.\n\t * @return The IPFS array of evidences for a case.\n\t */\n\tfunction getEvidence(uint256 _caseID) public view returns (string[] memory) {\n\t\treturn cases[_caseID].evidence;\n\t}\n}\n",
    "sourcePath": "contracts/Courtify.sol",
    "type": "contract",
    "deployment": {
        "address": "0x3180e17578ECca94976005904574E4Daa79D6935",
        "chainid": "80001",
        "blockHeight": 17679462
    }
}